{
	"Auction.sol": {
		"Auction": {
			"abi": [
				{
					"inputs": [],
					"stateMutability": "nonpayable",
					"type": "constructor"
				},
				{
					"anonymous": false,
					"inputs": [
						{
							"indexed": true,
							"internalType": "address",
							"name": "bidder",
							"type": "address"
						},
						{
							"indexed": false,
							"internalType": "uint256",
							"name": "amount",
							"type": "uint256"
						}
					],
					"name": "AcceptedBid",
					"type": "event"
				},
				{
					"anonymous": false,
					"inputs": [
						{
							"indexed": true,
							"internalType": "address",
							"name": "winnerBidder",
							"type": "address"
						},
						{
							"indexed": false,
							"internalType": "uint256",
							"name": "amount",
							"type": "uint256"
						}
					],
					"name": "AuctionEnded",
					"type": "event"
				},
				{
					"anonymous": false,
					"inputs": [
						{
							"indexed": true,
							"internalType": "address",
							"name": "bidder",
							"type": "address"
						},
						{
							"indexed": false,
							"internalType": "uint256",
							"name": "amount",
							"type": "uint256"
						}
					],
					"name": "PartialWithdraw",
					"type": "event"
				},
				{
					"anonymous": false,
					"inputs": [
						{
							"indexed": false,
							"internalType": "uint256",
							"name": "totalAmount",
							"type": "uint256"
						},
						{
							"indexed": false,
							"internalType": "uint256",
							"name": "totalFees",
							"type": "uint256"
						},
						{
							"indexed": false,
							"internalType": "uint256",
							"name": "totalAddresses",
							"type": "uint256"
						}
					],
					"name": "WithdrawFunds",
					"type": "event"
				},
				{
					"inputs": [],
					"name": "addBid",
					"outputs": [],
					"stateMutability": "payable",
					"type": "function"
				},
				{
					"inputs": [],
					"name": "endAuction",
					"outputs": [],
					"stateMutability": "nonpayable",
					"type": "function"
				},
				{
					"inputs": [],
					"name": "getAllBids",
					"outputs": [
						{
							"components": [
								{
									"internalType": "address payable",
									"name": "bidder",
									"type": "address"
								},
								{
									"internalType": "uint256",
									"name": "bid",
									"type": "uint256"
								},
								{
									"internalType": "uint256",
									"name": "totalBid",
									"type": "uint256"
								}
							],
							"internalType": "struct Auction.Bidder[]",
							"name": "",
							"type": "tuple[]"
						}
					],
					"stateMutability": "view",
					"type": "function"
				},
				{
					"inputs": [],
					"name": "getBalance",
					"outputs": [
						{
							"internalType": "uint256",
							"name": "",
							"type": "uint256"
						},
						{
							"internalType": "uint256",
							"name": "",
							"type": "uint256"
						}
					],
					"stateMutability": "view",
					"type": "function"
				},
				{
					"inputs": [],
					"name": "getWinnerBid",
					"outputs": [
						{
							"internalType": "address",
							"name": "",
							"type": "address"
						},
						{
							"internalType": "uint256",
							"name": "",
							"type": "uint256"
						}
					],
					"stateMutability": "view",
					"type": "function"
				},
				{
					"inputs": [],
					"name": "partialWithdraw",
					"outputs": [],
					"stateMutability": "nonpayable",
					"type": "function"
				},
				{
					"inputs": [],
					"name": "withdrawBids",
					"outputs": [],
					"stateMutability": "nonpayable",
					"type": "function"
				}
			],
			"devdoc": {
				"kind": "dev",
				"methods": {},
				"version": 1
			},
			"evm": {
				"assembly": "    /* \"Auction.sol\":60:5993  contract Auction {... */\n  mstore(0x40, 0x80)\n    /* \"Auction.sol\":1393:1629  constructor() {... */\n  callvalue\n  dup1\n  iszero\n  tag_1\n  jumpi\n  revert(0x00, 0x00)\ntag_1:\n  pop\n    /* \"Auction.sol\":1430:1445  block.timestamp */\n  timestamp\n    /* \"Auction.sol\":1418:1427  startTime */\n  0x03\n    /* \"Auction.sol\":1418:1445  startTime = block.timestamp */\n  dup2\n  swap1\n  sstore\n  pop\n    /* \"Auction.sol\":1498:1505  10 days */\n  0x0d2f00\n    /* \"Auction.sol\":1480:1495  block.timestamp */\n  timestamp\n    /* \"Auction.sol\":1480:1505  block.timestamp + 10 days */\n  tag_4\n  swap2\n  swap1\n  tag_5\n  jump\t// in\ntag_4:\n    /* \"Auction.sol\":1470:1477  endTime */\n  0x04\n    /* \"Auction.sol\":1470:1505  endTime = block.timestamp + 10 days */\n  dup2\n  swap1\n  sstore\n  pop\n    /* \"Auction.sol\":1545:1552  100 wei */\n  0x64\n    /* \"Auction.sol\":1533:1542  winnerBid */\n  0x02\n    /* \"Auction.sol\":1533:1552  winnerBid = 100 wei */\n  dup2\n  swap1\n  sstore\n  pop\n    /* \"Auction.sol\":1593:1603  msg.sender */\n  caller\n    /* \"Auction.sol\":1585:1590  owner */\n  0x00\n  0x00\n    /* \"Auction.sol\":1585:1603  owner = msg.sender */\n  0x0100\n  exp\n  dup2\n  sload\n  dup2\n  0xffffffffffffffffffffffffffffffffffffffff\n  mul\n  not\n  and\n  swap1\n  dup4\n  0xffffffffffffffffffffffffffffffffffffffff\n  and\n  mul\n  or\n  swap1\n  sstore\n  pop\n    /* \"Auction.sol\":60:5993  contract Auction {... */\n  jump(tag_6)\n    /* \"#utility.yul\":7:84   */\ntag_7:\n    /* \"#utility.yul\":44:51   */\n  0x00\n    /* \"#utility.yul\":73:78   */\n  dup2\n    /* \"#utility.yul\":62:78   */\n  swap1\n  pop\n    /* \"#utility.yul\":7:84   */\n  swap2\n  swap1\n  pop\n  jump\t// out\n    /* \"#utility.yul\":90:270   */\ntag_8:\n    /* \"#utility.yul\":138:215   */\n  0x4e487b7100000000000000000000000000000000000000000000000000000000\n    /* \"#utility.yul\":135:136   */\n  0x00\n    /* \"#utility.yul\":128:216   */\n  mstore\n    /* \"#utility.yul\":235:239   */\n  0x11\n    /* \"#utility.yul\":232:233   */\n  0x04\n    /* \"#utility.yul\":225:240   */\n  mstore\n    /* \"#utility.yul\":259:263   */\n  0x24\n    /* \"#utility.yul\":256:257   */\n  0x00\n    /* \"#utility.yul\":249:264   */\n  revert\n    /* \"#utility.yul\":276:467   */\ntag_5:\n    /* \"#utility.yul\":316:319   */\n  0x00\n    /* \"#utility.yul\":335:355   */\n  tag_13\n    /* \"#utility.yul\":353:354   */\n  dup3\n    /* \"#utility.yul\":335:355   */\n  tag_7\n  jump\t// in\ntag_13:\n    /* \"#utility.yul\":330:355   */\n  swap2\n  pop\n    /* \"#utility.yul\":369:389   */\n  tag_14\n    /* \"#utility.yul\":387:388   */\n  dup4\n    /* \"#utility.yul\":369:389   */\n  tag_7\n  jump\t// in\ntag_14:\n    /* \"#utility.yul\":364:389   */\n  swap3\n  pop\n    /* \"#utility.yul\":412:413   */\n  dup3\n    /* \"#utility.yul\":409:410   */\n  dup3\n    /* \"#utility.yul\":405:414   */\n  add\n    /* \"#utility.yul\":398:414   */\n  swap1\n  pop\n    /* \"#utility.yul\":433:436   */\n  dup1\n    /* \"#utility.yul\":430:431   */\n  dup3\n    /* \"#utility.yul\":427:437   */\n  gt\n    /* \"#utility.yul\":424:460   */\n  iszero\n  tag_15\n  jumpi\n    /* \"#utility.yul\":440:458   */\n  tag_16\n  tag_8\n  jump\t// in\ntag_16:\n    /* \"#utility.yul\":424:460   */\ntag_15:\n    /* \"#utility.yul\":276:467   */\n  swap3\n  swap2\n  pop\n  pop\n  jump\t// out\n    /* \"Auction.sol\":60:5993  contract Auction {... */\ntag_6:\n  dataSize(sub_0)\n  dup1\n  dataOffset(sub_0)\n  0x00\n  codecopy\n  0x00\n  return\nstop\n\nsub_0: assembly {\n        /* \"Auction.sol\":60:5993  contract Auction {... */\n      mstore(0x40, 0x80)\n      jumpi(tag_1, lt(calldatasize, 0x04))\n      shr(0xe0, calldataload(0x00))\n      dup1\n      0xc7505271\n      gt\n      tag_9\n      jumpi\n      dup1\n      0xc7505271\n      eq\n      tag_5\n      jumpi\n      dup1\n      0xceb98f6e\n      eq\n      tag_6\n      jumpi\n      dup1\n      0xf90ca117\n      eq\n      tag_7\n      jumpi\n      dup1\n      0xfe67a54b\n      eq\n      tag_8\n      jumpi\n      jump(tag_1)\n    tag_9:\n      dup1\n      0x12065fe0\n      eq\n      tag_2\n      jumpi\n      dup1\n      0x782a5c82\n      eq\n      tag_3\n      jumpi\n      dup1\n      0x8d0f6da3\n      eq\n      tag_4\n      jumpi\n    tag_1:\n      revert(0x00, 0x00)\n        /* \"Auction.sol\":5844:5988  function getBalance() external view returns (uint256, uint256) {... */\n    tag_2:\n      callvalue\n      dup1\n      iszero\n      tag_10\n      jumpi\n      revert(0x00, 0x00)\n    tag_10:\n      pop\n      tag_11\n      tag_12\n      jump\t// in\n    tag_11:\n      mload(0x40)\n      tag_13\n      swap3\n      swap2\n      swap1\n      tag_14\n      jump\t// in\n    tag_13:\n      mload(0x40)\n      dup1\n      swap2\n      sub\n      swap1\n      return\n        /* \"Auction.sol\":2170:3553  function addBid() external payable onlyActive {... */\n    tag_3:\n      tag_15\n      tag_16\n      jump\t// in\n    tag_15:\n      stop\n        /* \"Auction.sol\":3966:4064  function getAllBids () view external returns(Bidder[] memory) {... */\n    tag_4:\n      callvalue\n      dup1\n      iszero\n      tag_17\n      jumpi\n      revert(0x00, 0x00)\n    tag_17:\n      pop\n      tag_18\n      tag_19\n      jump\t// in\n    tag_18:\n      mload(0x40)\n      tag_20\n      swap2\n      swap1\n      tag_21\n      jump\t// in\n    tag_20:\n      mload(0x40)\n      dup1\n      swap2\n      sub\n      swap1\n      return\n        /* \"Auction.sol\":4123:4985  function withdrawBids() external onlyOwner onlyEnded {... */\n    tag_5:\n      callvalue\n      dup1\n      iszero\n      tag_22\n      jumpi\n      revert(0x00, 0x00)\n    tag_22:\n      pop\n      tag_23\n      tag_24\n      jump\t// in\n    tag_23:\n      stop\n        /* \"Auction.sol\":3619:3745  function getWinnerBid() view external onlyEnded returns (address, uint256) {... */\n    tag_6:\n      callvalue\n      dup1\n      iszero\n      tag_25\n      jumpi\n      revert(0x00, 0x00)\n    tag_25:\n      pop\n      tag_26\n      tag_27\n      jump\t// in\n    tag_26:\n      mload(0x40)\n      tag_28\n      swap3\n      swap2\n      swap1\n      tag_29\n      jump\t// in\n    tag_28:\n      mload(0x40)\n      dup1\n      swap2\n      sub\n      swap1\n      return\n        /* \"Auction.sol\":5048:5751  function partialWithdraw() external onlyActive { ... */\n    tag_7:\n      callvalue\n      dup1\n      iszero\n      tag_30\n      jumpi\n      revert(0x00, 0x00)\n    tag_30:\n      pop\n      tag_31\n      tag_32\n      jump\t// in\n    tag_31:\n      stop\n        /* \"Auction.sol\":3799:3911  function endAuction() external onlyOwner onlyEnded {... */\n    tag_8:\n      callvalue\n      dup1\n      iszero\n      tag_33\n      jumpi\n      revert(0x00, 0x00)\n    tag_33:\n      pop\n      tag_34\n      tag_35\n      jump\t// in\n    tag_34:\n      stop\n        /* \"Auction.sol\":5844:5988  function getBalance() external view returns (uint256, uint256) {... */\n    tag_12:\n        /* \"Auction.sol\":5889:5896  uint256 */\n      0x00\n        /* \"Auction.sol\":5898:5905  uint256 */\n      0x00\n        /* \"Auction.sol\":5926:5933  bidders */\n      0x05\n        /* \"Auction.sol\":5926:5945  bidders[msg.sender] */\n      0x00\n        /* \"Auction.sol\":5934:5944  msg.sender */\n      caller\n        /* \"Auction.sol\":5926:5945  bidders[msg.sender] */\n      0xffffffffffffffffffffffffffffffffffffffff\n      and\n      0xffffffffffffffffffffffffffffffffffffffff\n      and\n      dup2\n      mstore\n      0x20\n      add\n      swap1\n      dup2\n      mstore\n      0x20\n      add\n      0x00\n      keccak256\n        /* \"Auction.sol\":5926:5949  bidders[msg.sender].bid */\n      0x01\n      add\n      sload\n        /* \"Auction.sol\":5951:5958  bidders */\n      0x05\n        /* \"Auction.sol\":5951:5970  bidders[msg.sender] */\n      0x00\n        /* \"Auction.sol\":5959:5969  msg.sender */\n      caller\n        /* \"Auction.sol\":5951:5970  bidders[msg.sender] */\n      0xffffffffffffffffffffffffffffffffffffffff\n      and\n      0xffffffffffffffffffffffffffffffffffffffff\n      and\n      dup2\n      mstore\n      0x20\n      add\n      swap1\n      dup2\n      mstore\n      0x20\n      add\n      0x00\n      keccak256\n        /* \"Auction.sol\":5951:5979  bidders[msg.sender].totalBid */\n      0x02\n      add\n      sload\n        /* \"Auction.sol\":5918:5980  return (bidders[msg.sender].bid, bidders[msg.sender].totalBid) */\n      swap2\n      pop\n      swap2\n      pop\n        /* \"Auction.sol\":5844:5988  function getBalance() external view returns (uint256, uint256) {... */\n      swap1\n      swap2\n      jump\t// out\n        /* \"Auction.sol\":2170:3553  function addBid() external payable onlyActive {... */\n    tag_16:\n        /* \"Auction.sol\":1741:1748  endTime */\n      sload(0x04)\n        /* \"Auction.sol\":1723:1738  block.timestamp */\n      timestamp\n        /* \"Auction.sol\":1723:1748  block.timestamp < endTime */\n      lt\n        /* \"Auction.sol\":1714:1770  require (block.timestamp < endTime, \"Auction was ended\") */\n      tag_38\n      jumpi\n      mload(0x40)\n      0x08c379a000000000000000000000000000000000000000000000000000000000\n      dup2\n      mstore\n      0x04\n      add\n      tag_39\n      swap1\n      tag_40\n      jump\t// in\n    tag_39:\n      mload(0x40)\n      dup1\n      swap2\n      sub\n      swap1\n      revert\n    tag_38:\n        /* \"Auction.sol\":2227:2241  uint256 newBid */\n      0x00\n        /* \"Auction.sol\":2244:2253  msg.value */\n      callvalue\n        /* \"Auction.sol\":2227:2253  uint256 newBid = msg.value */\n      swap1\n      pop\n        /* \"Auction.sol\":2264:2282  address bidAddress */\n      0x00\n        /* \"Auction.sol\":2285:2295  msg.sender */\n      caller\n        /* \"Auction.sol\":2264:2295  address bidAddress = msg.sender */\n      swap1\n      pop\n        /* \"Auction.sol\":2342:2345  100 */\n      0x64\n        /* \"Auction.sol\":2336:2339  105 */\n      0x69\n        /* \"Auction.sol\":2324:2333  winnerBid */\n      sload(0x02)\n        /* \"Auction.sol\":2324:2339  winnerBid * 105 */\n      tag_42\n      swap2\n      swap1\n      tag_43\n      jump\t// in\n    tag_42:\n        /* \"Auction.sol\":2324:2345  winnerBid * 105 / 100 */\n      tag_44\n      swap2\n      swap1\n      tag_45\n      jump\t// in\n    tag_44:\n        /* \"Auction.sol\":2314:2320  newBid */\n      dup3\n        /* \"Auction.sol\":2314:2345  newBid >= winnerBid * 105 / 100 */\n      lt\n      iszero\n        /* \"Auction.sol\":2306:2401  require(newBid >= winnerBid * 105 / 100, \"Bid must be at least 5% greater than current winner\") */\n      tag_46\n      jumpi\n      mload(0x40)\n      0x08c379a000000000000000000000000000000000000000000000000000000000\n      dup2\n      mstore\n      0x04\n      add\n      tag_47\n      swap1\n      tag_48\n      jump\t// in\n    tag_47:\n      mload(0x40)\n      dup1\n      swap2\n      sub\n      swap1\n      revert\n    tag_46:\n        /* \"Auction.sol\":2412:2430  Bidder storage bid */\n      0x00\n        /* \"Auction.sol\":2433:2440  bidders */\n      0x05\n        /* \"Auction.sol\":2433:2452  bidders[bidAddress] */\n      0x00\n        /* \"Auction.sol\":2441:2451  bidAddress */\n      dup4\n        /* \"Auction.sol\":2433:2452  bidders[bidAddress] */\n      0xffffffffffffffffffffffffffffffffffffffff\n      and\n      0xffffffffffffffffffffffffffffffffffffffff\n      and\n      dup2\n      mstore\n      0x20\n      add\n      swap1\n      dup2\n      mstore\n      0x20\n      add\n      0x00\n      keccak256\n        /* \"Auction.sol\":2412:2452  Bidder storage bid = bidders[bidAddress] */\n      swap1\n      pop\n        /* \"Auction.sol\":2491:2492  0 */\n      0x00\n        /* \"Auction.sol\":2469:2493  bid.bidder == address(0) */\n      0xffffffffffffffffffffffffffffffffffffffff\n      and\n        /* \"Auction.sol\":2469:2472  bid */\n      dup2\n        /* \"Auction.sol\":2469:2479  bid.bidder */\n      0x00\n      add\n      0x00\n      swap1\n      sload\n      swap1\n      0x0100\n      exp\n      swap1\n      div\n      0xffffffffffffffffffffffffffffffffffffffff\n      and\n        /* \"Auction.sol\":2469:2493  bid.bidder == address(0) */\n      0xffffffffffffffffffffffffffffffffffffffff\n      and\n      sub\n        /* \"Auction.sol\":2465:3246  if (bid.bidder == address(0)) {... */\n      tag_49\n      jumpi\n        /* \"Auction.sol\":2542:2565  Bidder memory newBidder */\n      0x00\n        /* \"Auction.sol\":2568:2702  Bidder({... */\n      mload(0x40)\n      dup1\n      0x60\n      add\n      0x40\n      mstore\n      dup1\n        /* \"Auction.sol\":2610:2620  bidAddress */\n      dup5\n        /* \"Auction.sol\":2568:2702  Bidder({... */\n      0xffffffffffffffffffffffffffffffffffffffff\n      and\n      dup2\n      mstore\n      0x20\n      add\n        /* \"Auction.sol\":2645:2651  newBid */\n      dup6\n        /* \"Auction.sol\":2568:2702  Bidder({... */\n      dup2\n      mstore\n      0x20\n      add\n        /* \"Auction.sol\":2680:2686  newBid */\n      dup6\n        /* \"Auction.sol\":2568:2702  Bidder({... */\n      dup2\n      mstore\n      pop\n        /* \"Auction.sol\":2542:2702  Bidder memory newBidder = Bidder({... */\n      swap1\n      pop\n        /* \"Auction.sol\":2789:2798  newBidder */\n      dup1\n        /* \"Auction.sol\":2767:2774  bidders */\n      0x05\n        /* \"Auction.sol\":2767:2786  bidders[bidAddress] */\n      0x00\n        /* \"Auction.sol\":2775:2785  bidAddress */\n      dup6\n        /* \"Auction.sol\":2767:2786  bidders[bidAddress] */\n      0xffffffffffffffffffffffffffffffffffffffff\n      and\n      0xffffffffffffffffffffffffffffffffffffffff\n      and\n      dup2\n      mstore\n      0x20\n      add\n      swap1\n      dup2\n      mstore\n      0x20\n      add\n      0x00\n      keccak256\n        /* \"Auction.sol\":2767:2798  bidders[bidAddress] = newBidder */\n      0x00\n      dup3\n      add\n      mload\n      dup2\n      0x00\n      add\n      exp(0x0100, 0x00)\n      dup2\n      sload\n      dup2\n      0xffffffffffffffffffffffffffffffffffffffff\n      mul\n      not\n      and\n      swap1\n      dup4\n      0xffffffffffffffffffffffffffffffffffffffff\n      and\n      mul\n      or\n      swap1\n      sstore\n      pop\n      0x20\n      dup3\n      add\n      mload\n      dup2\n      0x01\n      add\n      sstore\n      0x40\n      dup3\n      add\n      mload\n      dup2\n      0x02\n      add\n      sstore\n      swap1\n      pop\n      pop\n        /* \"Auction.sol\":2813:2823  allBidders */\n      0x06\n        /* \"Auction.sol\":2829:2838  newBidder */\n      dup2\n        /* \"Auction.sol\":2813:2839  allBidders.push(newBidder) */\n      swap1\n      dup1\n      0x01\n      dup2\n      sload\n      add\n      dup1\n      dup3\n      sstore\n      dup1\n      swap2\n      pop\n      pop\n      0x01\n      swap1\n      sub\n      swap1\n      0x00\n      mstore\n      keccak256(0x00, 0x20)\n      swap1\n      0x03\n      mul\n      add\n      0x00\n      swap1\n      swap2\n      swap1\n      swap2\n      swap1\n      swap2\n      pop\n      0x00\n      dup3\n      add\n      mload\n      dup2\n      0x00\n      add\n      exp(0x0100, 0x00)\n      dup2\n      sload\n      dup2\n      0xffffffffffffffffffffffffffffffffffffffff\n      mul\n      not\n      and\n      swap1\n      dup4\n      0xffffffffffffffffffffffffffffffffffffffff\n      and\n      mul\n      or\n      swap1\n      sstore\n      pop\n      0x20\n      dup3\n      add\n      mload\n      dup2\n      0x01\n      add\n      sstore\n      0x40\n      dup3\n      add\n      mload\n      dup2\n      0x02\n      add\n      sstore\n      pop\n      pop\n        /* \"Auction.sol\":2908:2918  allBidders */\n      0x06\n        /* \"Auction.sol\":2908:2925  allBidders.length */\n      dup1\n      sload\n      swap1\n      pop\n        /* \"Auction.sol\":2882:2893  bidderIndex */\n      0x07\n        /* \"Auction.sol\":2882:2905  bidderIndex[bidAddress] */\n      0x00\n        /* \"Auction.sol\":2894:2904  bidAddress */\n      dup6\n        /* \"Auction.sol\":2882:2905  bidderIndex[bidAddress] */\n      0xffffffffffffffffffffffffffffffffffffffff\n      and\n      0xffffffffffffffffffffffffffffffffffffffff\n      and\n      dup2\n      mstore\n      0x20\n      add\n      swap1\n      dup2\n      mstore\n      0x20\n      add\n      0x00\n      keccak256\n        /* \"Auction.sol\":2882:2925  bidderIndex[bidAddress] = allBidders.length */\n      dup2\n      swap1\n      sstore\n      pop\n        /* \"Auction.sol\":2495:2937  {... */\n      pop\n        /* \"Auction.sol\":2465:3246  if (bid.bidder == address(0)) {... */\n      jump(tag_51)\n    tag_49:\n        /* \"Auction.sol\":3001:3007  newBid */\n      dup3\n        /* \"Auction.sol\":2991:2994  bid */\n      dup2\n        /* \"Auction.sol\":2991:2998  bid.bid */\n      0x01\n      add\n        /* \"Auction.sol\":2991:3007  bid.bid = newBid */\n      dup2\n      swap1\n      sstore\n      pop\n        /* \"Auction.sol\":3038:3044  newBid */\n      dup3\n        /* \"Auction.sol\":3022:3025  bid */\n      dup2\n        /* \"Auction.sol\":3022:3034  bid.totalBid */\n      0x02\n      add\n      0x00\n        /* \"Auction.sol\":3022:3044  bid.totalBid += newBid */\n      dup3\n      dup3\n      sload\n      tag_52\n      swap2\n      swap1\n      tag_53\n      jump\t// in\n    tag_52:\n      swap3\n      pop\n      pop\n      dup2\n      swap1\n      sstore\n      pop\n        /* \"Auction.sol\":3095:3108  uint256 index */\n      0x00\n        /* \"Auction.sol\":3137:3138  1 */\n      0x01\n        /* \"Auction.sol\":3111:3122  bidderIndex */\n      0x07\n        /* \"Auction.sol\":3111:3134  bidderIndex[bidAddress] */\n      0x00\n        /* \"Auction.sol\":3123:3133  bidAddress */\n      dup6\n        /* \"Auction.sol\":3111:3134  bidderIndex[bidAddress] */\n      0xffffffffffffffffffffffffffffffffffffffff\n      and\n      0xffffffffffffffffffffffffffffffffffffffff\n      and\n      dup2\n      mstore\n      0x20\n      add\n      swap1\n      dup2\n      mstore\n      0x20\n      add\n      0x00\n      keccak256\n      sload\n        /* \"Auction.sol\":3111:3138  bidderIndex[bidAddress] - 1 */\n      tag_54\n      swap2\n      swap1\n      tag_55\n      jump\t// in\n    tag_54:\n        /* \"Auction.sol\":3095:3138  uint256 index = bidderIndex[bidAddress] - 1 */\n      swap1\n      pop\n        /* \"Auction.sol\":3177:3183  newBid */\n      dup4\n        /* \"Auction.sol\":3153:3163  allBidders */\n      0x06\n        /* \"Auction.sol\":3164:3169  index */\n      dup3\n        /* \"Auction.sol\":3153:3170  allBidders[index] */\n      dup2\n      sload\n      dup2\n      lt\n      tag_56\n      jumpi\n      tag_57\n      tag_58\n      jump\t// in\n    tag_57:\n    tag_56:\n      swap1\n      0x00\n      mstore\n      keccak256(0x00, 0x20)\n      swap1\n      0x03\n      mul\n      add\n        /* \"Auction.sol\":3153:3174  allBidders[index].bid */\n      0x01\n      add\n        /* \"Auction.sol\":3153:3183  allBidders[index].bid = newBid */\n      dup2\n      swap1\n      sstore\n      pop\n        /* \"Auction.sol\":3228:3234  newBid */\n      dup4\n        /* \"Auction.sol\":3198:3208  allBidders */\n      0x06\n        /* \"Auction.sol\":3209:3214  index */\n      dup3\n        /* \"Auction.sol\":3198:3215  allBidders[index] */\n      dup2\n      sload\n      dup2\n      lt\n      tag_60\n      jumpi\n      tag_61\n      tag_58\n      jump\t// in\n    tag_61:\n    tag_60:\n      swap1\n      0x00\n      mstore\n      keccak256(0x00, 0x20)\n      swap1\n      0x03\n      mul\n      add\n        /* \"Auction.sol\":3198:3224  allBidders[index].totalBid */\n      0x02\n      add\n      0x00\n        /* \"Auction.sol\":3198:3234  allBidders[index].totalBid += newBid */\n      dup3\n      dup3\n      sload\n      tag_63\n      swap2\n      swap1\n      tag_53\n      jump\t// in\n    tag_63:\n      swap3\n      pop\n      pop\n      dup2\n      swap1\n      sstore\n      pop\n        /* \"Auction.sol\":2943:3246  {... */\n      pop\n        /* \"Auction.sol\":2465:3246  if (bid.bidder == address(0)) {... */\n    tag_51:\n        /* \"Auction.sol\":3301:3307  newBid */\n      dup3\n        /* \"Auction.sol\":3289:3298  winnerBid */\n      0x02\n        /* \"Auction.sol\":3289:3307  winnerBid = newBid */\n      dup2\n      swap1\n      sstore\n      pop\n        /* \"Auction.sol\":3341:3351  bidAddress */\n      dup2\n        /* \"Auction.sol\":3318:3330  winnerBidder */\n      0x01\n      0x00\n        /* \"Auction.sol\":3318:3352  winnerBidder = payable(bidAddress) */\n      0x0100\n      exp\n      dup2\n      sload\n      dup2\n      0xffffffffffffffffffffffffffffffffffffffff\n      mul\n      not\n      and\n      swap1\n      dup4\n      0xffffffffffffffffffffffffffffffffffffffff\n      and\n      mul\n      or\n      swap1\n      sstore\n      pop\n        /* \"Auction.sol\":3380:3390  bidAddress */\n      dup2\n        /* \"Auction.sol\":3368:3399  AcceptedBid(bidAddress, newBid) */\n      0xffffffffffffffffffffffffffffffffffffffff\n      and\n      0xdefdc4699ae6600934634bec71e3e4081368537fb24e45ea245b17b8c448c391\n        /* \"Auction.sol\":3392:3398  newBid */\n      dup5\n        /* \"Auction.sol\":3368:3399  AcceptedBid(bidAddress, newBid) */\n      mload(0x40)\n      tag_64\n      swap2\n      swap1\n      tag_65\n      jump\t// in\n    tag_64:\n      mload(0x40)\n      dup1\n      swap2\n      sub\n      swap1\n      log2\n        /* \"Auction.sol\":3481:3491  10 minutes */\n      0x0258\n        /* \"Auction.sol\":3471:3478  endTime */\n      sload(0x04)\n        /* \"Auction.sol\":3471:3491  endTime - 10 minutes */\n      tag_66\n      swap2\n      swap1\n      tag_55\n      jump\t// in\n    tag_66:\n        /* \"Auction.sol\":3452:3467  block.timestamp */\n      timestamp\n        /* \"Auction.sol\":3452:3492  block.timestamp > (endTime - 10 minutes) */\n      gt\n        /* \"Auction.sol\":3448:3546  if (block.timestamp > (endTime - 10 minutes)) {... */\n      iszero\n      tag_67\n      jumpi\n        /* \"Auction.sol\":459:469  10 minutes */\n      0x0258\n        /* \"Auction.sol\":3509:3516  endTime */\n      0x04\n      0x00\n        /* \"Auction.sol\":3509:3534  endTime += EXTENSION_TIME */\n      dup3\n      dup3\n      sload\n      tag_68\n      swap2\n      swap1\n      tag_53\n      jump\t// in\n    tag_68:\n      swap3\n      pop\n      pop\n      dup2\n      swap1\n      sstore\n      pop\n        /* \"Auction.sol\":3448:3546  if (block.timestamp > (endTime - 10 minutes)) {... */\n    tag_67:\n        /* \"Auction.sol\":2216:3553  {... */\n      pop\n      pop\n      pop\n        /* \"Auction.sol\":2170:3553  function addBid() external payable onlyActive {... */\n      jump\t// out\n        /* \"Auction.sol\":3966:4064  function getAllBids () view external returns(Bidder[] memory) {... */\n    tag_19:\n        /* \"Auction.sol\":4011:4026  Bidder[] memory */\n      0x60\n        /* \"Auction.sol\":4046:4056  allBidders */\n      0x06\n        /* \"Auction.sol\":4039:4056  return allBidders */\n      dup1\n      sload\n      dup1\n      0x20\n      mul\n      0x20\n      add\n      mload(0x40)\n      swap1\n      dup2\n      add\n      0x40\n      mstore\n      dup1\n      swap3\n      swap2\n      swap1\n      dup2\n      dup2\n      mstore\n      0x20\n      add\n      0x00\n      swap1\n    tag_70:\n      dup3\n      dup3\n      lt\n      iszero\n      tag_71\n      jumpi\n      dup4\n      dup3\n      swap1\n      0x00\n      mstore\n      keccak256(0x00, 0x20)\n      swap1\n      0x03\n      mul\n      add\n      mload(0x40)\n      dup1\n      0x60\n      add\n      0x40\n      mstore\n      swap1\n      dup2\n      0x00\n      dup3\n      add\n      0x00\n      swap1\n      sload\n      swap1\n      0x0100\n      exp\n      swap1\n      div\n      0xffffffffffffffffffffffffffffffffffffffff\n      and\n      0xffffffffffffffffffffffffffffffffffffffff\n      and\n      0xffffffffffffffffffffffffffffffffffffffff\n      and\n      dup2\n      mstore\n      0x20\n      add\n      0x01\n      dup3\n      add\n      sload\n      dup2\n      mstore\n      0x20\n      add\n      0x02\n      dup3\n      add\n      sload\n      dup2\n      mstore\n      pop\n      pop\n      dup2\n      mstore\n      0x20\n      add\n      swap1\n      0x01\n      add\n      swap1\n      jump(tag_70)\n    tag_71:\n      pop\n      pop\n      pop\n      pop\n      swap1\n      pop\n        /* \"Auction.sol\":3966:4064  function getAllBids () view external returns(Bidder[] memory) {... */\n      swap1\n      jump\t// out\n        /* \"Auction.sol\":4123:4985  function withdrawBids() external onlyOwner onlyEnded {... */\n    tag_24:\n        /* \"Auction.sol\":1902:1907  owner */\n      0x00\n      0x00\n      swap1\n      sload\n      swap1\n      0x0100\n      exp\n      swap1\n      div\n      0xffffffffffffffffffffffffffffffffffffffff\n      and\n        /* \"Auction.sol\":1888:1907  msg.sender == owner */\n      0xffffffffffffffffffffffffffffffffffffffff\n      and\n        /* \"Auction.sol\":1888:1898  msg.sender */\n      caller\n        /* \"Auction.sol\":1888:1907  msg.sender == owner */\n      0xffffffffffffffffffffffffffffffffffffffff\n      and\n      eq\n        /* \"Auction.sol\":1879:1931  require (msg.sender == owner, \"Only contract owner\") */\n      tag_74\n      jumpi\n      mload(0x40)\n      0x08c379a000000000000000000000000000000000000000000000000000000000\n      dup2\n      mstore\n      0x04\n      add\n      tag_75\n      swap1\n      tag_76\n      jump\t// in\n    tag_75:\n      mload(0x40)\n      dup1\n      swap2\n      sub\n      swap1\n      revert\n    tag_74:\n        /* \"Auction.sol\":2059:2066  endTime */\n      sload(0x04)\n        /* \"Auction.sol\":2040:2055  block.timestamp */\n      timestamp\n        /* \"Auction.sol\":2040:2066  block.timestamp >= endTime */\n      lt\n      iszero\n        /* \"Auction.sol\":2031:2091  require (block.timestamp >= endTime, \"Auction is not ended\") */\n      tag_78\n      jumpi\n      mload(0x40)\n      0x08c379a000000000000000000000000000000000000000000000000000000000\n      dup2\n      mstore\n      0x04\n      add\n      tag_79\n      swap1\n      tag_80\n      jump\t// in\n    tag_79:\n      mload(0x40)\n      dup1\n      swap2\n      sub\n      swap1\n      revert\n    tag_78:\n        /* \"Auction.sol\":4187:4201  uint256 length */\n      0x00\n        /* \"Auction.sol\":4204:4214  allBidders */\n      0x06\n        /* \"Auction.sol\":4204:4221  allBidders.length */\n      dup1\n      sload\n      swap1\n      pop\n        /* \"Auction.sol\":4187:4221  uint256 length = allBidders.length */\n      swap1\n      pop\n        /* \"Auction.sol\":4232:4251  uint256 totalAmount */\n      0x00\n        /* \"Auction.sol\":4262:4285  uint256 totalAmountFees */\n      0x00\n        /* \"Auction.sol\":4296:4318  uint256 totalAddresses */\n      0x00\n        /* \"Auction.sol\":4368:4377  uint256 i */\n      0x00\n        /* \"Auction.sol\":4380:4381  0 */\n      0x00\n        /* \"Auction.sol\":4368:4381  uint256 i = 0 */\n      swap1\n      pop\n        /* \"Auction.sol\":4363:4838  for (uint256 i = 0; i < length; i++)  {... */\n    tag_82:\n        /* \"Auction.sol\":4387:4393  length */\n      dup5\n        /* \"Auction.sol\":4383:4384  i */\n      dup2\n        /* \"Auction.sol\":4383:4393  i < length */\n      lt\n        /* \"Auction.sol\":4363:4838  for (uint256 i = 0; i < length; i++)  {... */\n      iszero\n      tag_83\n      jumpi\n        /* \"Auction.sol\":4416:4432  uint256 totalBid */\n      0x00\n        /* \"Auction.sol\":4435:4445  allBidders */\n      0x06\n        /* \"Auction.sol\":4446:4447  i */\n      dup3\n        /* \"Auction.sol\":4435:4448  allBidders[i] */\n      dup2\n      sload\n      dup2\n      lt\n      tag_85\n      jumpi\n      tag_86\n      tag_58\n      jump\t// in\n    tag_86:\n    tag_85:\n      swap1\n      0x00\n      mstore\n      keccak256(0x00, 0x20)\n      swap1\n      0x03\n      mul\n      add\n        /* \"Auction.sol\":4435:4457  allBidders[i].totalBid */\n      0x02\n      add\n      sload\n        /* \"Auction.sol\":4416:4457  uint256 totalBid = allBidders[i].totalBid */\n      swap1\n      pop\n        /* \"Auction.sol\":4539:4551  winnerBidder */\n      0x01\n      0x00\n      swap1\n      sload\n      swap1\n      0x0100\n      exp\n      swap1\n      div\n      0xffffffffffffffffffffffffffffffffffffffff\n      and\n        /* \"Auction.sol\":4515:4551  allBidders[i].bidder != winnerBidder */\n      0xffffffffffffffffffffffffffffffffffffffff\n      and\n        /* \"Auction.sol\":4515:4525  allBidders */\n      0x06\n        /* \"Auction.sol\":4526:4527  i */\n      dup4\n        /* \"Auction.sol\":4515:4528  allBidders[i] */\n      dup2\n      sload\n      dup2\n      lt\n      tag_88\n      jumpi\n      tag_89\n      tag_58\n      jump\t// in\n    tag_89:\n    tag_88:\n      swap1\n      0x00\n      mstore\n      keccak256(0x00, 0x20)\n      swap1\n      0x03\n      mul\n      add\n        /* \"Auction.sol\":4515:4535  allBidders[i].bidder */\n      0x00\n      add\n      0x00\n      swap1\n      sload\n      swap1\n      0x0100\n      exp\n      swap1\n      div\n      0xffffffffffffffffffffffffffffffffffffffff\n      and\n        /* \"Auction.sol\":4515:4551  allBidders[i].bidder != winnerBidder */\n      0xffffffffffffffffffffffffffffffffffffffff\n      and\n      eq\n      iszero\n        /* \"Auction.sol\":4515:4567  allBidders[i].bidder != winnerBidder && totalBid > 0 */\n      dup1\n      iszero\n      tag_91\n      jumpi\n      pop\n        /* \"Auction.sol\":4566:4567  0 */\n      0x00\n        /* \"Auction.sol\":4555:4563  totalBid */\n      dup2\n        /* \"Auction.sol\":4555:4567  totalBid > 0 */\n      gt\n        /* \"Auction.sol\":4515:4567  allBidders[i].bidder != winnerBidder && totalBid > 0 */\n    tag_91:\n        /* \"Auction.sol\":4511:4827  if (allBidders[i].bidder != winnerBidder && totalBid > 0) {... */\n      iszero\n      tag_92\n      jumpi\n        /* \"Auction.sol\":4603:4611  totalBid */\n      dup1\n        /* \"Auction.sol\":4588:4611  totalAmount += totalBid */\n      dup6\n      tag_93\n      swap2\n      swap1\n      tag_53\n      jump\t// in\n    tag_93:\n      swap5\n      pop\n        /* \"Auction.sol\":4631:4647  totalAddresses++ */\n      dup3\n      dup1\n      tag_94\n      swap1\n      tag_95\n      jump\t// in\n    tag_94:\n      swap4\n      pop\n      pop\n        /* \"Auction.sol\":4717:4727  allBidders */\n      0x06\n        /* \"Auction.sol\":4728:4729  i */\n      dup3\n        /* \"Auction.sol\":4717:4730  allBidders[i] */\n      dup2\n      sload\n      dup2\n      lt\n      tag_96\n      jumpi\n      tag_97\n      tag_58\n      jump\t// in\n    tag_97:\n    tag_96:\n      swap1\n      0x00\n      mstore\n      keccak256(0x00, 0x20)\n      swap1\n      0x03\n      mul\n      add\n        /* \"Auction.sol\":4717:4737  allBidders[i].bidder */\n      0x00\n      add\n      0x00\n      swap1\n      sload\n      swap1\n      0x0100\n      exp\n      swap1\n      div\n      0xffffffffffffffffffffffffffffffffffffffff\n      and\n        /* \"Auction.sol\":4709:4747  payable(allBidders[i].bidder).transfer */\n      0xffffffffffffffffffffffffffffffffffffffff\n      and\n        /* \"Auction.sol\":4709:4766  payable(allBidders[i].bidder).transfer(totalBid * 98/100) */\n      0x08fc\n        /* \"Auction.sol\":4762:4765  100 */\n      0x64\n        /* \"Auction.sol\":4759:4761  98 */\n      0x62\n        /* \"Auction.sol\":4748:4756  totalBid */\n      dup5\n        /* \"Auction.sol\":4748:4761  totalBid * 98 */\n      tag_99\n      swap2\n      swap1\n      tag_43\n      jump\t// in\n    tag_99:\n        /* \"Auction.sol\":4748:4765  totalBid * 98/100 */\n      tag_100\n      swap2\n      swap1\n      tag_45\n      jump\t// in\n    tag_100:\n        /* \"Auction.sol\":4709:4766  payable(allBidders[i].bidder).transfer(totalBid * 98/100) */\n      swap1\n      dup2\n      iszero\n      mul\n      swap1\n      mload(0x40)\n      0x00\n      mload(0x40)\n      dup1\n      dup4\n      sub\n      dup2\n      dup6\n      dup9\n      dup9\n      call\n      swap4\n      pop\n      pop\n      pop\n      pop\n      iszero\n      dup1\n      iszero\n      tag_102\n      jumpi\n      returndatacopy(0x00, 0x00, returndatasize)\n      revert(0x00, returndatasize)\n    tag_102:\n      pop\n        /* \"Auction.sol\":4810:4811  0 */\n      0x00\n        /* \"Auction.sol\":4785:4795  allBidders */\n      0x06\n        /* \"Auction.sol\":4796:4797  i */\n      dup4\n        /* \"Auction.sol\":4785:4798  allBidders[i] */\n      dup2\n      sload\n      dup2\n      lt\n      tag_103\n      jumpi\n      tag_104\n      tag_58\n      jump\t// in\n    tag_104:\n    tag_103:\n      swap1\n      0x00\n      mstore\n      keccak256(0x00, 0x20)\n      swap1\n      0x03\n      mul\n      add\n        /* \"Auction.sol\":4785:4807  allBidders[i].totalBid */\n      0x02\n      add\n        /* \"Auction.sol\":4785:4811  allBidders[i].totalBid = 0 */\n      dup2\n      swap1\n      sstore\n      pop\n        /* \"Auction.sol\":4511:4827  if (allBidders[i].bidder != winnerBidder && totalBid > 0) {... */\n    tag_92:\n        /* \"Auction.sol\":4401:4838  {... */\n      pop\n        /* \"Auction.sol\":4395:4398  i++ */\n      dup1\n      dup1\n      0x01\n      add\n      swap2\n      pop\n      pop\n        /* \"Auction.sol\":4363:4838  for (uint256 i = 0; i < length; i++)  {... */\n      jump(tag_82)\n    tag_83:\n      pop\n        /* \"Auction.sol\":4898:4901  100 */\n      0x64\n        /* \"Auction.sol\":4895:4897  98 */\n      0x62\n        /* \"Auction.sol\":4881:4892  totalAmount */\n      dup5\n        /* \"Auction.sol\":4881:4897  totalAmount * 98 */\n      tag_106\n      swap2\n      swap1\n      tag_43\n      jump\t// in\n    tag_106:\n        /* \"Auction.sol\":4881:4901  totalAmount * 98/100 */\n      tag_107\n      swap2\n      swap1\n      tag_45\n      jump\t// in\n    tag_107:\n        /* \"Auction.sol\":4866:4877  totalAmount */\n      dup4\n        /* \"Auction.sol\":4866:4902  totalAmount - (totalAmount * 98/100) */\n      tag_108\n      swap2\n      swap1\n      tag_55\n      jump\t// in\n    tag_108:\n        /* \"Auction.sol\":4848:4902  totalAmountFees = totalAmount - (totalAmount * 98/100) */\n      swap2\n      pop\n        /* \"Auction.sol\":4918:4977  WithdrawFunds(totalAmount, totalAmountFees, totalAddresses) */\n      0x05dfbfb672ffab2921c60754df242659e83c6eda1bfe5401bd054b8170ede1ff\n        /* \"Auction.sol\":4932:4943  totalAmount */\n      dup4\n        /* \"Auction.sol\":4945:4960  totalAmountFees */\n      dup4\n        /* \"Auction.sol\":4962:4976  totalAddresses */\n      dup4\n        /* \"Auction.sol\":4918:4977  WithdrawFunds(totalAmount, totalAmountFees, totalAddresses) */\n      mload(0x40)\n      tag_109\n      swap4\n      swap3\n      swap2\n      swap1\n      tag_110\n      jump\t// in\n    tag_109:\n      mload(0x40)\n      dup1\n      swap2\n      sub\n      swap1\n      log1\n        /* \"Auction.sol\":4176:4985  {... */\n      pop\n      pop\n      pop\n      pop\n        /* \"Auction.sol\":4123:4985  function withdrawBids() external onlyOwner onlyEnded {... */\n      jump\t// out\n        /* \"Auction.sol\":3619:3745  function getWinnerBid() view external onlyEnded returns (address, uint256) {... */\n    tag_27:\n        /* \"Auction.sol\":3676:3683  address */\n      0x00\n        /* \"Auction.sol\":3685:3692  uint256 */\n      0x00\n        /* \"Auction.sol\":2059:2066  endTime */\n      sload(0x04)\n        /* \"Auction.sol\":2040:2055  block.timestamp */\n      timestamp\n        /* \"Auction.sol\":2040:2066  block.timestamp >= endTime */\n      lt\n      iszero\n        /* \"Auction.sol\":2031:2091  require (block.timestamp >= endTime, \"Auction is not ended\") */\n      tag_112\n      jumpi\n      mload(0x40)\n      0x08c379a000000000000000000000000000000000000000000000000000000000\n      dup2\n      mstore\n      0x04\n      add\n      tag_113\n      swap1\n      tag_80\n      jump\t// in\n    tag_113:\n      mload(0x40)\n      dup1\n      swap2\n      sub\n      swap1\n      revert\n    tag_112:\n        /* \"Auction.sol\":3713:3725  winnerBidder */\n      0x01\n      0x00\n      swap1\n      sload\n      swap1\n      0x0100\n      exp\n      swap1\n      div\n      0xffffffffffffffffffffffffffffffffffffffff\n      and\n        /* \"Auction.sol\":3727:3736  winnerBid */\n      sload(0x02)\n        /* \"Auction.sol\":3705:3737  return (winnerBidder, winnerBid) */\n      swap2\n      pop\n      swap2\n      pop\n        /* \"Auction.sol\":3619:3745  function getWinnerBid() view external onlyEnded returns (address, uint256) {... */\n      swap1\n      swap2\n      jump\t// out\n        /* \"Auction.sol\":5048:5751  function partialWithdraw() external onlyActive { ... */\n    tag_32:\n        /* \"Auction.sol\":1741:1748  endTime */\n      sload(0x04)\n        /* \"Auction.sol\":1723:1738  block.timestamp */\n      timestamp\n        /* \"Auction.sol\":1723:1748  block.timestamp < endTime */\n      lt\n        /* \"Auction.sol\":1714:1770  require (block.timestamp < endTime, \"Auction was ended\") */\n      tag_116\n      jumpi\n      mload(0x40)\n      0x08c379a000000000000000000000000000000000000000000000000000000000\n      dup2\n      mstore\n      0x04\n      add\n      tag_117\n      swap1\n      tag_40\n      jump\t// in\n    tag_117:\n      mload(0x40)\n      dup1\n      swap2\n      sub\n      swap1\n      revert\n    tag_116:\n        /* \"Auction.sol\":5107:5130  address withdrawAddress */\n      0x00\n        /* \"Auction.sol\":5133:5143  msg.sender */\n      caller\n        /* \"Auction.sol\":5107:5143  address withdrawAddress = msg.sender */\n      swap1\n      pop\n        /* \"Auction.sol\":5210:5211  0 */\n      0x00\n        /* \"Auction.sol\":5167:5212  bidders[withdrawAddress].bidder != address(0) */\n      0xffffffffffffffffffffffffffffffffffffffff\n      and\n        /* \"Auction.sol\":5167:5174  bidders */\n      0x05\n        /* \"Auction.sol\":5167:5191  bidders[withdrawAddress] */\n      0x00\n        /* \"Auction.sol\":5175:5190  withdrawAddress */\n      dup4\n        /* \"Auction.sol\":5167:5191  bidders[withdrawAddress] */\n      0xffffffffffffffffffffffffffffffffffffffff\n      and\n      0xffffffffffffffffffffffffffffffffffffffff\n      and\n      dup2\n      mstore\n      0x20\n      add\n      swap1\n      dup2\n      mstore\n      0x20\n      add\n      0x00\n      keccak256\n        /* \"Auction.sol\":5167:5198  bidders[withdrawAddress].bidder */\n      0x00\n      add\n      0x00\n      swap1\n      sload\n      swap1\n      0x0100\n      exp\n      swap1\n      div\n      0xffffffffffffffffffffffffffffffffffffffff\n      and\n        /* \"Auction.sol\":5167:5212  bidders[withdrawAddress].bidder != address(0) */\n      0xffffffffffffffffffffffffffffffffffffffff\n      and\n      sub\n        /* \"Auction.sol\":5159:5255  require(bidders[withdrawAddress].bidder != address(0), \"Invalid address to do a partial refund\") */\n      tag_119\n      jumpi\n      mload(0x40)\n      0x08c379a000000000000000000000000000000000000000000000000000000000\n      dup2\n      mstore\n      0x04\n      add\n      tag_120\n      swap1\n      tag_121\n      jump\t// in\n    tag_120:\n      mload(0x40)\n      dup1\n      swap2\n      sub\n      swap1\n      revert\n    tag_119:\n        /* \"Auction.sol\":5275:5299  uint256 amountToWithdraw */\n      0x00\n        /* \"Auction.sol\":5338:5345  bidders */\n      0x05\n        /* \"Auction.sol\":5338:5362  bidders[withdrawAddress] */\n      0x00\n        /* \"Auction.sol\":5346:5361  withdrawAddress */\n      dup4\n        /* \"Auction.sol\":5338:5362  bidders[withdrawAddress] */\n      0xffffffffffffffffffffffffffffffffffffffff\n      and\n      0xffffffffffffffffffffffffffffffffffffffff\n      and\n      dup2\n      mstore\n      0x20\n      add\n      swap1\n      dup2\n      mstore\n      0x20\n      add\n      0x00\n      keccak256\n        /* \"Auction.sol\":5338:5366  bidders[withdrawAddress].bid */\n      0x01\n      add\n      sload\n        /* \"Auction.sol\":5302:5309  bidders */\n      0x05\n        /* \"Auction.sol\":5302:5326  bidders[withdrawAddress] */\n      0x00\n        /* \"Auction.sol\":5310:5325  withdrawAddress */\n      dup5\n        /* \"Auction.sol\":5302:5326  bidders[withdrawAddress] */\n      0xffffffffffffffffffffffffffffffffffffffff\n      and\n      0xffffffffffffffffffffffffffffffffffffffff\n      and\n      dup2\n      mstore\n      0x20\n      add\n      swap1\n      dup2\n      mstore\n      0x20\n      add\n      0x00\n      keccak256\n        /* \"Auction.sol\":5302:5335  bidders[withdrawAddress].totalBid */\n      0x02\n      add\n      sload\n        /* \"Auction.sol\":5302:5366  bidders[withdrawAddress].totalBid - bidders[withdrawAddress].bid */\n      tag_122\n      swap2\n      swap1\n      tag_55\n      jump\t// in\n    tag_122:\n        /* \"Auction.sol\":5275:5366  uint256 amountToWithdraw = bidders[withdrawAddress].totalBid - bidders[withdrawAddress].bid */\n      swap1\n      pop\n        /* \"Auction.sol\":5404:5405  0 */\n      0x00\n        /* \"Auction.sol\":5385:5401  amountToWithdraw */\n      dup2\n        /* \"Auction.sol\":5385:5405  amountToWithdraw > 0 */\n      gt\n        /* \"Auction.sol\":5377:5463  require(amountToWithdraw > 0, \"Total bid - last accepted bid must be greather than 0\") */\n      tag_123\n      jumpi\n      mload(0x40)\n      0x08c379a000000000000000000000000000000000000000000000000000000000\n      dup2\n      mstore\n      0x04\n      add\n      tag_124\n      swap1\n      tag_125\n      jump\t// in\n    tag_124:\n      mload(0x40)\n      dup1\n      swap2\n      sub\n      swap1\n      revert\n    tag_123:\n        /* \"Auction.sol\":5514:5515  0 */\n      0x00\n        /* \"Auction.sol\":5495:5511  amountToWithdraw */\n      dup2\n        /* \"Auction.sol\":5495:5515  amountToWithdraw > 0 */\n      gt\n        /* \"Auction.sol\":5491:5744  if (amountToWithdraw > 0) {... */\n      iszero\n      tag_126\n      jumpi\n        /* \"Auction.sol\":5540:5555  withdrawAddress */\n      dup2\n        /* \"Auction.sol\":5532:5565  payable(withdrawAddress).transfer */\n      0xffffffffffffffffffffffffffffffffffffffff\n      and\n        /* \"Auction.sol\":5532:5583  payable(withdrawAddress).transfer(amountToWithdraw) */\n      0x08fc\n        /* \"Auction.sol\":5566:5582  amountToWithdraw */\n      dup3\n        /* \"Auction.sol\":5532:5583  payable(withdrawAddress).transfer(amountToWithdraw) */\n      swap1\n      dup2\n      iszero\n      mul\n      swap1\n      mload(0x40)\n      0x00\n      mload(0x40)\n      dup1\n      dup4\n      sub\n      dup2\n      dup6\n      dup9\n      dup9\n      call\n      swap4\n      pop\n      pop\n      pop\n      pop\n      iszero\n      dup1\n      iszero\n      tag_128\n      jumpi\n      returndatacopy(0x00, 0x00, returndatasize)\n      revert(0x00, returndatasize)\n    tag_128:\n      pop\n        /* \"Auction.sol\":5634:5641  bidders */\n      0x05\n        /* \"Auction.sol\":5634:5658  bidders[withdrawAddress] */\n      0x00\n        /* \"Auction.sol\":5642:5657  withdrawAddress */\n      dup4\n        /* \"Auction.sol\":5634:5658  bidders[withdrawAddress] */\n      0xffffffffffffffffffffffffffffffffffffffff\n      and\n      0xffffffffffffffffffffffffffffffffffffffff\n      and\n      dup2\n      mstore\n      0x20\n      add\n      swap1\n      dup2\n      mstore\n      0x20\n      add\n      0x00\n      keccak256\n        /* \"Auction.sol\":5634:5662  bidders[withdrawAddress].bid */\n      0x01\n      add\n      sload\n        /* \"Auction.sol\":5598:5605  bidders */\n      0x05\n        /* \"Auction.sol\":5598:5622  bidders[withdrawAddress] */\n      0x00\n        /* \"Auction.sol\":5606:5621  withdrawAddress */\n      dup5\n        /* \"Auction.sol\":5598:5622  bidders[withdrawAddress] */\n      0xffffffffffffffffffffffffffffffffffffffff\n      and\n      0xffffffffffffffffffffffffffffffffffffffff\n      and\n      dup2\n      mstore\n      0x20\n      add\n      swap1\n      dup2\n      mstore\n      0x20\n      add\n      0x00\n      keccak256\n        /* \"Auction.sol\":5598:5631  bidders[withdrawAddress].totalBid */\n      0x02\n      add\n        /* \"Auction.sol\":5598:5662  bidders[withdrawAddress].totalBid = bidders[withdrawAddress].bid */\n      dup2\n      swap1\n      sstore\n      pop\n        /* \"Auction.sol\":5698:5713  withdrawAddress */\n      dup2\n        /* \"Auction.sol\":5682:5732  PartialWithdraw(withdrawAddress, amountToWithdraw) */\n      0xffffffffffffffffffffffffffffffffffffffff\n      and\n      0xd84fcbac5440aedda6d2b5f149aa3182c87252eef5bab6f061cfe022a3e166ef\n        /* \"Auction.sol\":5715:5731  amountToWithdraw */\n      dup3\n        /* \"Auction.sol\":5682:5732  PartialWithdraw(withdrawAddress, amountToWithdraw) */\n      mload(0x40)\n      tag_129\n      swap2\n      swap1\n      tag_65\n      jump\t// in\n    tag_129:\n      mload(0x40)\n      dup1\n      swap2\n      sub\n      swap1\n      log2\n        /* \"Auction.sol\":5491:5744  if (amountToWithdraw > 0) {... */\n    tag_126:\n        /* \"Auction.sol\":5095:5751  { ... */\n      pop\n      pop\n        /* \"Auction.sol\":5048:5751  function partialWithdraw() external onlyActive { ... */\n      jump\t// out\n        /* \"Auction.sol\":3799:3911  function endAuction() external onlyOwner onlyEnded {... */\n    tag_35:\n        /* \"Auction.sol\":1902:1907  owner */\n      0x00\n      0x00\n      swap1\n      sload\n      swap1\n      0x0100\n      exp\n      swap1\n      div\n      0xffffffffffffffffffffffffffffffffffffffff\n      and\n        /* \"Auction.sol\":1888:1907  msg.sender == owner */\n      0xffffffffffffffffffffffffffffffffffffffff\n      and\n        /* \"Auction.sol\":1888:1898  msg.sender */\n      caller\n        /* \"Auction.sol\":1888:1907  msg.sender == owner */\n      0xffffffffffffffffffffffffffffffffffffffff\n      and\n      eq\n        /* \"Auction.sol\":1879:1931  require (msg.sender == owner, \"Only contract owner\") */\n      tag_131\n      jumpi\n      mload(0x40)\n      0x08c379a000000000000000000000000000000000000000000000000000000000\n      dup2\n      mstore\n      0x04\n      add\n      tag_132\n      swap1\n      tag_76\n      jump\t// in\n    tag_132:\n      mload(0x40)\n      dup1\n      swap2\n      sub\n      swap1\n      revert\n    tag_131:\n        /* \"Auction.sol\":2059:2066  endTime */\n      sload(0x04)\n        /* \"Auction.sol\":2040:2055  block.timestamp */\n      timestamp\n        /* \"Auction.sol\":2040:2066  block.timestamp >= endTime */\n      lt\n      iszero\n        /* \"Auction.sol\":2031:2091  require (block.timestamp >= endTime, \"Auction is not ended\") */\n      tag_134\n      jumpi\n      mload(0x40)\n      0x08c379a000000000000000000000000000000000000000000000000000000000\n      dup2\n      mstore\n      0x04\n      add\n      tag_135\n      swap1\n      tag_80\n      jump\t// in\n    tag_135:\n      mload(0x40)\n      dup1\n      swap2\n      sub\n      swap1\n      revert\n    tag_134:\n        /* \"Auction.sol\":3879:3891  winnerBidder */\n      0x01\n      0x00\n      swap1\n      sload\n      swap1\n      0x0100\n      exp\n      swap1\n      div\n      0xffffffffffffffffffffffffffffffffffffffff\n      and\n        /* \"Auction.sol\":3866:3903  AuctionEnded(winnerBidder, winnerBid) */\n      0xffffffffffffffffffffffffffffffffffffffff\n      and\n      0xdaec4582d5d9595688c8c98545fdd1c696d41c6aeaeb636737e84ed2f5c00eda\n        /* \"Auction.sol\":3893:3902  winnerBid */\n      sload(0x02)\n        /* \"Auction.sol\":3866:3903  AuctionEnded(winnerBidder, winnerBid) */\n      mload(0x40)\n      tag_137\n      swap2\n      swap1\n      tag_65\n      jump\t// in\n    tag_137:\n      mload(0x40)\n      dup1\n      swap2\n      sub\n      swap1\n      log2\n        /* \"Auction.sol\":3799:3911  function endAuction() external onlyOwner onlyEnded {... */\n      jump\t// out\n        /* \"#utility.yul\":7:84   */\n    tag_138:\n        /* \"#utility.yul\":44:51   */\n      0x00\n        /* \"#utility.yul\":73:78   */\n      dup2\n        /* \"#utility.yul\":62:78   */\n      swap1\n      pop\n        /* \"#utility.yul\":7:84   */\n      swap2\n      swap1\n      pop\n      jump\t// out\n        /* \"#utility.yul\":90:208   */\n    tag_139:\n        /* \"#utility.yul\":177:201   */\n      tag_171\n        /* \"#utility.yul\":195:200   */\n      dup2\n        /* \"#utility.yul\":177:201   */\n      tag_138\n      jump\t// in\n    tag_171:\n        /* \"#utility.yul\":172:175   */\n      dup3\n        /* \"#utility.yul\":165:202   */\n      mstore\n        /* \"#utility.yul\":90:208   */\n      pop\n      pop\n      jump\t// out\n        /* \"#utility.yul\":214:546   */\n    tag_14:\n        /* \"#utility.yul\":335:339   */\n      0x00\n        /* \"#utility.yul\":373:375   */\n      0x40\n        /* \"#utility.yul\":362:371   */\n      dup3\n        /* \"#utility.yul\":358:376   */\n      add\n        /* \"#utility.yul\":350:376   */\n      swap1\n      pop\n        /* \"#utility.yul\":386:457   */\n      tag_173\n        /* \"#utility.yul\":454:455   */\n      0x00\n        /* \"#utility.yul\":443:452   */\n      dup4\n        /* \"#utility.yul\":439:456   */\n      add\n        /* \"#utility.yul\":430:436   */\n      dup6\n        /* \"#utility.yul\":386:457   */\n      tag_139\n      jump\t// in\n    tag_173:\n        /* \"#utility.yul\":467:539   */\n      tag_174\n        /* \"#utility.yul\":535:537   */\n      0x20\n        /* \"#utility.yul\":524:533   */\n      dup4\n        /* \"#utility.yul\":520:538   */\n      add\n        /* \"#utility.yul\":511:517   */\n      dup5\n        /* \"#utility.yul\":467:539   */\n      tag_139\n      jump\t// in\n    tag_174:\n        /* \"#utility.yul\":214:546   */\n      swap4\n      swap3\n      pop\n      pop\n      pop\n      jump\t// out\n        /* \"#utility.yul\":552:688   */\n    tag_140:\n        /* \"#utility.yul\":641:647   */\n      0x00\n        /* \"#utility.yul\":675:680   */\n      dup2\n        /* \"#utility.yul\":669:681   */\n      mload\n        /* \"#utility.yul\":659:681   */\n      swap1\n      pop\n        /* \"#utility.yul\":552:688   */\n      swap2\n      swap1\n      pop\n      jump\t// out\n        /* \"#utility.yul\":694:900   */\n    tag_141:\n        /* \"#utility.yul\":815:826   */\n      0x00\n        /* \"#utility.yul\":849:855   */\n      dup3\n        /* \"#utility.yul\":844:847   */\n      dup3\n        /* \"#utility.yul\":837:856   */\n      mstore\n        /* \"#utility.yul\":889:893   */\n      0x20\n        /* \"#utility.yul\":884:887   */\n      dup3\n        /* \"#utility.yul\":880:894   */\n      add\n        /* \"#utility.yul\":865:894   */\n      swap1\n      pop\n        /* \"#utility.yul\":694:900   */\n      swap3\n      swap2\n      pop\n      pop\n      jump\t// out\n        /* \"#utility.yul\":906:1060   */\n    tag_142:\n        /* \"#utility.yul\":995:999   */\n      0x00\n        /* \"#utility.yul\":1018:1021   */\n      dup2\n        /* \"#utility.yul\":1010:1021   */\n      swap1\n      pop\n        /* \"#utility.yul\":1048:1052   */\n      0x20\n        /* \"#utility.yul\":1043:1046   */\n      dup3\n        /* \"#utility.yul\":1039:1053   */\n      add\n        /* \"#utility.yul\":1031:1053   */\n      swap1\n      pop\n        /* \"#utility.yul\":906:1060   */\n      swap2\n      swap1\n      pop\n      jump\t// out\n        /* \"#utility.yul\":1066:1192   */\n    tag_143:\n        /* \"#utility.yul\":1103:1110   */\n      0x00\n        /* \"#utility.yul\":1143:1185   */\n      0xffffffffffffffffffffffffffffffffffffffff\n        /* \"#utility.yul\":1136:1141   */\n      dup3\n        /* \"#utility.yul\":1132:1186   */\n      and\n        /* \"#utility.yul\":1121:1186   */\n      swap1\n      pop\n        /* \"#utility.yul\":1066:1192   */\n      swap2\n      swap1\n      pop\n      jump\t// out\n        /* \"#utility.yul\":1198:1302   */\n    tag_144:\n        /* \"#utility.yul\":1243:1250   */\n      0x00\n        /* \"#utility.yul\":1272:1296   */\n      tag_180\n        /* \"#utility.yul\":1290:1295   */\n      dup3\n        /* \"#utility.yul\":1272:1296   */\n      tag_143\n      jump\t// in\n    tag_180:\n        /* \"#utility.yul\":1261:1296   */\n      swap1\n      pop\n        /* \"#utility.yul\":1198:1302   */\n      swap2\n      swap1\n      pop\n      jump\t// out\n        /* \"#utility.yul\":1308:1440   */\n    tag_145:\n        /* \"#utility.yul\":1401:1433   */\n      tag_182\n        /* \"#utility.yul\":1427:1432   */\n      dup2\n        /* \"#utility.yul\":1401:1433   */\n      tag_144\n      jump\t// in\n    tag_182:\n        /* \"#utility.yul\":1396:1399   */\n      dup3\n        /* \"#utility.yul\":1389:1434   */\n      mstore\n        /* \"#utility.yul\":1308:1440   */\n      pop\n      pop\n      jump\t// out\n        /* \"#utility.yul\":1446:1554   */\n    tag_146:\n        /* \"#utility.yul\":1523:1547   */\n      tag_184\n        /* \"#utility.yul\":1541:1546   */\n      dup2\n        /* \"#utility.yul\":1523:1547   */\n      tag_138\n      jump\t// in\n    tag_184:\n        /* \"#utility.yul\":1518:1521   */\n      dup3\n        /* \"#utility.yul\":1511:1548   */\n      mstore\n        /* \"#utility.yul\":1446:1554   */\n      pop\n      pop\n      jump\t// out\n        /* \"#utility.yul\":1614:2300   */\n    tag_147:\n        /* \"#utility.yul\":1745:1749   */\n      0x60\n        /* \"#utility.yul\":1740:1743   */\n      dup3\n        /* \"#utility.yul\":1736:1750   */\n      add\n        /* \"#utility.yul\":1834:1838   */\n      0x00\n        /* \"#utility.yul\":1827:1832   */\n      dup3\n        /* \"#utility.yul\":1823:1839   */\n      add\n        /* \"#utility.yul\":1817:1840   */\n      mload\n        /* \"#utility.yul\":1853:1932   */\n      tag_186\n        /* \"#utility.yul\":1926:1930   */\n      0x00\n        /* \"#utility.yul\":1921:1924   */\n      dup6\n        /* \"#utility.yul\":1917:1931   */\n      add\n        /* \"#utility.yul\":1903:1915   */\n      dup3\n        /* \"#utility.yul\":1853:1932   */\n      tag_145\n      jump\t// in\n    tag_186:\n        /* \"#utility.yul\":1760:1942   */\n      pop\n        /* \"#utility.yul\":2023:2027   */\n      0x20\n        /* \"#utility.yul\":2016:2021   */\n      dup3\n        /* \"#utility.yul\":2012:2028   */\n      add\n        /* \"#utility.yul\":2006:2029   */\n      mload\n        /* \"#utility.yul\":2042:2105   */\n      tag_187\n        /* \"#utility.yul\":2099:2103   */\n      0x20\n        /* \"#utility.yul\":2094:2097   */\n      dup6\n        /* \"#utility.yul\":2090:2104   */\n      add\n        /* \"#utility.yul\":2076:2088   */\n      dup3\n        /* \"#utility.yul\":2042:2105   */\n      tag_146\n      jump\t// in\n    tag_187:\n        /* \"#utility.yul\":1952:2115   */\n      pop\n        /* \"#utility.yul\":2201:2205   */\n      0x40\n        /* \"#utility.yul\":2194:2199   */\n      dup3\n        /* \"#utility.yul\":2190:2206   */\n      add\n        /* \"#utility.yul\":2184:2207   */\n      mload\n        /* \"#utility.yul\":2220:2283   */\n      tag_188\n        /* \"#utility.yul\":2277:2281   */\n      0x40\n        /* \"#utility.yul\":2272:2275   */\n      dup6\n        /* \"#utility.yul\":2268:2282   */\n      add\n        /* \"#utility.yul\":2254:2266   */\n      dup3\n        /* \"#utility.yul\":2220:2283   */\n      tag_146\n      jump\t// in\n    tag_188:\n        /* \"#utility.yul\":2125:2293   */\n      pop\n        /* \"#utility.yul\":1714:2300   */\n      pop\n        /* \"#utility.yul\":1614:2300   */\n      pop\n      pop\n      jump\t// out\n        /* \"#utility.yul\":2306:2573   */\n    tag_148:\n        /* \"#utility.yul\":2419:2429   */\n      0x00\n        /* \"#utility.yul\":2440:2530   */\n      tag_190\n        /* \"#utility.yul\":2526:2529   */\n      dup4\n        /* \"#utility.yul\":2518:2524   */\n      dup4\n        /* \"#utility.yul\":2440:2530   */\n      tag_147\n      jump\t// in\n    tag_190:\n        /* \"#utility.yul\":2562:2566   */\n      0x60\n        /* \"#utility.yul\":2557:2560   */\n      dup4\n        /* \"#utility.yul\":2553:2567   */\n      add\n        /* \"#utility.yul\":2539:2567   */\n      swap1\n      pop\n        /* \"#utility.yul\":2306:2573   */\n      swap3\n      swap2\n      pop\n      pop\n      jump\t// out\n        /* \"#utility.yul\":2579:2714   */\n    tag_149:\n        /* \"#utility.yul\":2671:2675   */\n      0x00\n        /* \"#utility.yul\":2703:2707   */\n      0x20\n        /* \"#utility.yul\":2698:2701   */\n      dup3\n        /* \"#utility.yul\":2694:2708   */\n      add\n        /* \"#utility.yul\":2686:2708   */\n      swap1\n      pop\n        /* \"#utility.yul\":2579:2714   */\n      swap2\n      swap1\n      pop\n      jump\t// out\n        /* \"#utility.yul\":2778:3686   */\n    tag_150:\n        /* \"#utility.yul\":2941:2944   */\n      0x00\n        /* \"#utility.yul\":2970:3046   */\n      tag_193\n        /* \"#utility.yul\":3040:3045   */\n      dup3\n        /* \"#utility.yul\":2970:3046   */\n      tag_140\n      jump\t// in\n    tag_193:\n        /* \"#utility.yul\":3062:3170   */\n      tag_194\n        /* \"#utility.yul\":3163:3169   */\n      dup2\n        /* \"#utility.yul\":3158:3161   */\n      dup6\n        /* \"#utility.yul\":3062:3170   */\n      tag_141\n      jump\t// in\n    tag_194:\n        /* \"#utility.yul\":3055:3170   */\n      swap4\n      pop\n        /* \"#utility.yul\":3194:3272   */\n      tag_195\n        /* \"#utility.yul\":3266:3271   */\n      dup4\n        /* \"#utility.yul\":3194:3272   */\n      tag_142\n      jump\t// in\n    tag_195:\n        /* \"#utility.yul\":3295:3302   */\n      dup1\n        /* \"#utility.yul\":3326:3327   */\n      0x00\n        /* \"#utility.yul\":3311:3661   */\n    tag_196:\n        /* \"#utility.yul\":3336:3342   */\n      dup4\n        /* \"#utility.yul\":3333:3334   */\n      dup2\n        /* \"#utility.yul\":3330:3343   */\n      lt\n        /* \"#utility.yul\":3311:3661   */\n      iszero\n      tag_198\n      jumpi\n        /* \"#utility.yul\":3412:3418   */\n      dup2\n        /* \"#utility.yul\":3406:3419   */\n      mload\n        /* \"#utility.yul\":3439:3546   */\n      tag_199\n        /* \"#utility.yul\":3542:3545   */\n      dup9\n        /* \"#utility.yul\":3527:3540   */\n      dup3\n        /* \"#utility.yul\":3439:3546   */\n      tag_148\n      jump\t// in\n    tag_199:\n        /* \"#utility.yul\":3432:3546   */\n      swap8\n      pop\n        /* \"#utility.yul\":3569:3651   */\n      tag_200\n        /* \"#utility.yul\":3644:3650   */\n      dup4\n        /* \"#utility.yul\":3569:3651   */\n      tag_149\n      jump\t// in\n    tag_200:\n        /* \"#utility.yul\":3559:3651   */\n      swap3\n      pop\n        /* \"#utility.yul\":3371:3661   */\n      pop\n        /* \"#utility.yul\":3358:3359   */\n      0x01\n        /* \"#utility.yul\":3355:3356   */\n      dup2\n        /* \"#utility.yul\":3351:3360   */\n      add\n        /* \"#utility.yul\":3346:3360   */\n      swap1\n      pop\n        /* \"#utility.yul\":3311:3661   */\n      jump(tag_196)\n    tag_198:\n        /* \"#utility.yul\":3315:3329   */\n      pop\n        /* \"#utility.yul\":3677:3680   */\n      dup6\n        /* \"#utility.yul\":3670:3680   */\n      swap4\n      pop\n        /* \"#utility.yul\":2946:3686   */\n      pop\n      pop\n      pop\n        /* \"#utility.yul\":2778:3686   */\n      swap3\n      swap2\n      pop\n      pop\n      jump\t// out\n        /* \"#utility.yul\":3692:4153   */\n    tag_21:\n        /* \"#utility.yul\":3879:3883   */\n      0x00\n        /* \"#utility.yul\":3917:3919   */\n      0x20\n        /* \"#utility.yul\":3906:3915   */\n      dup3\n        /* \"#utility.yul\":3902:3920   */\n      add\n        /* \"#utility.yul\":3894:3920   */\n      swap1\n      pop\n        /* \"#utility.yul\":3966:3975   */\n      dup2\n        /* \"#utility.yul\":3960:3964   */\n      dup2\n        /* \"#utility.yul\":3956:3976   */\n      sub\n        /* \"#utility.yul\":3952:3953   */\n      0x00\n        /* \"#utility.yul\":3941:3950   */\n      dup4\n        /* \"#utility.yul\":3937:3954   */\n      add\n        /* \"#utility.yul\":3930:3977   */\n      mstore\n        /* \"#utility.yul\":3994:4146   */\n      tag_202\n        /* \"#utility.yul\":4141:4145   */\n      dup2\n        /* \"#utility.yul\":4132:4138   */\n      dup5\n        /* \"#utility.yul\":3994:4146   */\n      tag_150\n      jump\t// in\n    tag_202:\n        /* \"#utility.yul\":3986:4146   */\n      swap1\n      pop\n        /* \"#utility.yul\":3692:4153   */\n      swap3\n      swap2\n      pop\n      pop\n      jump\t// out\n        /* \"#utility.yul\":4159:4255   */\n    tag_151:\n        /* \"#utility.yul\":4196:4203   */\n      0x00\n        /* \"#utility.yul\":4225:4249   */\n      tag_204\n        /* \"#utility.yul\":4243:4248   */\n      dup3\n        /* \"#utility.yul\":4225:4249   */\n      tag_143\n      jump\t// in\n    tag_204:\n        /* \"#utility.yul\":4214:4249   */\n      swap1\n      pop\n        /* \"#utility.yul\":4159:4255   */\n      swap2\n      swap1\n      pop\n      jump\t// out\n        /* \"#utility.yul\":4261:4379   */\n    tag_152:\n        /* \"#utility.yul\":4348:4372   */\n      tag_206\n        /* \"#utility.yul\":4366:4371   */\n      dup2\n        /* \"#utility.yul\":4348:4372   */\n      tag_151\n      jump\t// in\n    tag_206:\n        /* \"#utility.yul\":4343:4346   */\n      dup3\n        /* \"#utility.yul\":4336:4373   */\n      mstore\n        /* \"#utility.yul\":4261:4379   */\n      pop\n      pop\n      jump\t// out\n        /* \"#utility.yul\":4385:4717   */\n    tag_29:\n        /* \"#utility.yul\":4506:4510   */\n      0x00\n        /* \"#utility.yul\":4544:4546   */\n      0x40\n        /* \"#utility.yul\":4533:4542   */\n      dup3\n        /* \"#utility.yul\":4529:4547   */\n      add\n        /* \"#utility.yul\":4521:4547   */\n      swap1\n      pop\n        /* \"#utility.yul\":4557:4628   */\n      tag_208\n        /* \"#utility.yul\":4625:4626   */\n      0x00\n        /* \"#utility.yul\":4614:4623   */\n      dup4\n        /* \"#utility.yul\":4610:4627   */\n      add\n        /* \"#utility.yul\":4601:4607   */\n      dup6\n        /* \"#utility.yul\":4557:4628   */\n      tag_152\n      jump\t// in\n    tag_208:\n        /* \"#utility.yul\":4638:4710   */\n      tag_209\n        /* \"#utility.yul\":4706:4708   */\n      0x20\n        /* \"#utility.yul\":4695:4704   */\n      dup4\n        /* \"#utility.yul\":4691:4709   */\n      add\n        /* \"#utility.yul\":4682:4688   */\n      dup5\n        /* \"#utility.yul\":4638:4710   */\n      tag_139\n      jump\t// in\n    tag_209:\n        /* \"#utility.yul\":4385:4717   */\n      swap4\n      swap3\n      pop\n      pop\n      pop\n      jump\t// out\n        /* \"#utility.yul\":4723:4892   */\n    tag_153:\n        /* \"#utility.yul\":4807:4818   */\n      0x00\n        /* \"#utility.yul\":4841:4847   */\n      dup3\n        /* \"#utility.yul\":4836:4839   */\n      dup3\n        /* \"#utility.yul\":4829:4848   */\n      mstore\n        /* \"#utility.yul\":4881:4885   */\n      0x20\n        /* \"#utility.yul\":4876:4879   */\n      dup3\n        /* \"#utility.yul\":4872:4886   */\n      add\n        /* \"#utility.yul\":4857:4886   */\n      swap1\n      pop\n        /* \"#utility.yul\":4723:4892   */\n      swap3\n      swap2\n      pop\n      pop\n      jump\t// out\n        /* \"#utility.yul\":4898:5065   */\n    tag_154:\n        /* \"#utility.yul\":5038:5057   */\n      0x41756374696f6e2077617320656e646564000000000000000000000000000000\n        /* \"#utility.yul\":5034:5035   */\n      0x00\n        /* \"#utility.yul\":5026:5032   */\n      dup3\n        /* \"#utility.yul\":5022:5036   */\n      add\n        /* \"#utility.yul\":5015:5058   */\n      mstore\n        /* \"#utility.yul\":4898:5065   */\n      pop\n      jump\t// out\n        /* \"#utility.yul\":5071:5437   */\n    tag_155:\n        /* \"#utility.yul\":5213:5216   */\n      0x00\n        /* \"#utility.yul\":5234:5301   */\n      tag_213\n        /* \"#utility.yul\":5298:5300   */\n      0x11\n        /* \"#utility.yul\":5293:5296   */\n      dup4\n        /* \"#utility.yul\":5234:5301   */\n      tag_153\n      jump\t// in\n    tag_213:\n        /* \"#utility.yul\":5227:5301   */\n      swap2\n      pop\n        /* \"#utility.yul\":5310:5403   */\n      tag_214\n        /* \"#utility.yul\":5399:5402   */\n      dup3\n        /* \"#utility.yul\":5310:5403   */\n      tag_154\n      jump\t// in\n    tag_214:\n        /* \"#utility.yul\":5428:5430   */\n      0x20\n        /* \"#utility.yul\":5423:5426   */\n      dup3\n        /* \"#utility.yul\":5419:5431   */\n      add\n        /* \"#utility.yul\":5412:5431   */\n      swap1\n      pop\n        /* \"#utility.yul\":5071:5437   */\n      swap2\n      swap1\n      pop\n      jump\t// out\n        /* \"#utility.yul\":5443:5862   */\n    tag_40:\n        /* \"#utility.yul\":5609:5613   */\n      0x00\n        /* \"#utility.yul\":5647:5649   */\n      0x20\n        /* \"#utility.yul\":5636:5645   */\n      dup3\n        /* \"#utility.yul\":5632:5650   */\n      add\n        /* \"#utility.yul\":5624:5650   */\n      swap1\n      pop\n        /* \"#utility.yul\":5696:5705   */\n      dup2\n        /* \"#utility.yul\":5690:5694   */\n      dup2\n        /* \"#utility.yul\":5686:5706   */\n      sub\n        /* \"#utility.yul\":5682:5683   */\n      0x00\n        /* \"#utility.yul\":5671:5680   */\n      dup4\n        /* \"#utility.yul\":5667:5684   */\n      add\n        /* \"#utility.yul\":5660:5707   */\n      mstore\n        /* \"#utility.yul\":5724:5855   */\n      tag_216\n        /* \"#utility.yul\":5850:5854   */\n      dup2\n        /* \"#utility.yul\":5724:5855   */\n      tag_155\n      jump\t// in\n    tag_216:\n        /* \"#utility.yul\":5716:5855   */\n      swap1\n      pop\n        /* \"#utility.yul\":5443:5862   */\n      swap2\n      swap1\n      pop\n      jump\t// out\n        /* \"#utility.yul\":5868:6048   */\n    tag_156:\n        /* \"#utility.yul\":5916:5993   */\n      0x4e487b7100000000000000000000000000000000000000000000000000000000\n        /* \"#utility.yul\":5913:5914   */\n      0x00\n        /* \"#utility.yul\":5906:5994   */\n      mstore\n        /* \"#utility.yul\":6013:6017   */\n      0x11\n        /* \"#utility.yul\":6010:6011   */\n      0x04\n        /* \"#utility.yul\":6003:6018   */\n      mstore\n        /* \"#utility.yul\":6037:6041   */\n      0x24\n        /* \"#utility.yul\":6034:6035   */\n      0x00\n        /* \"#utility.yul\":6027:6042   */\n      revert\n        /* \"#utility.yul\":6054:6464   */\n    tag_43:\n        /* \"#utility.yul\":6094:6101   */\n      0x00\n        /* \"#utility.yul\":6117:6137   */\n      tag_219\n        /* \"#utility.yul\":6135:6136   */\n      dup3\n        /* \"#utility.yul\":6117:6137   */\n      tag_138\n      jump\t// in\n    tag_219:\n        /* \"#utility.yul\":6112:6137   */\n      swap2\n      pop\n        /* \"#utility.yul\":6151:6171   */\n      tag_220\n        /* \"#utility.yul\":6169:6170   */\n      dup4\n        /* \"#utility.yul\":6151:6171   */\n      tag_138\n      jump\t// in\n    tag_220:\n        /* \"#utility.yul\":6146:6171   */\n      swap3\n      pop\n        /* \"#utility.yul\":6206:6207   */\n      dup3\n        /* \"#utility.yul\":6203:6204   */\n      dup3\n        /* \"#utility.yul\":6199:6208   */\n      mul\n        /* \"#utility.yul\":6228:6258   */\n      tag_221\n        /* \"#utility.yul\":6246:6257   */\n      dup2\n        /* \"#utility.yul\":6228:6258   */\n      tag_138\n      jump\t// in\n    tag_221:\n        /* \"#utility.yul\":6217:6258   */\n      swap2\n      pop\n        /* \"#utility.yul\":6407:6408   */\n      dup3\n        /* \"#utility.yul\":6398:6405   */\n      dup3\n        /* \"#utility.yul\":6394:6409   */\n      div\n        /* \"#utility.yul\":6391:6392   */\n      dup5\n        /* \"#utility.yul\":6388:6410   */\n      eq\n        /* \"#utility.yul\":6368:6369   */\n      dup4\n        /* \"#utility.yul\":6361:6370   */\n      iszero\n        /* \"#utility.yul\":6341:6424   */\n      or\n        /* \"#utility.yul\":6318:6457   */\n      tag_222\n      jumpi\n        /* \"#utility.yul\":6437:6455   */\n      tag_223\n      tag_156\n      jump\t// in\n    tag_223:\n        /* \"#utility.yul\":6318:6457   */\n    tag_222:\n        /* \"#utility.yul\":6102:6464   */\n      pop\n        /* \"#utility.yul\":6054:6464   */\n      swap3\n      swap2\n      pop\n      pop\n      jump\t// out\n        /* \"#utility.yul\":6470:6650   */\n    tag_157:\n        /* \"#utility.yul\":6518:6595   */\n      0x4e487b7100000000000000000000000000000000000000000000000000000000\n        /* \"#utility.yul\":6515:6516   */\n      0x00\n        /* \"#utility.yul\":6508:6596   */\n      mstore\n        /* \"#utility.yul\":6615:6619   */\n      0x12\n        /* \"#utility.yul\":6612:6613   */\n      0x04\n        /* \"#utility.yul\":6605:6620   */\n      mstore\n        /* \"#utility.yul\":6639:6643   */\n      0x24\n        /* \"#utility.yul\":6636:6637   */\n      0x00\n        /* \"#utility.yul\":6629:6644   */\n      revert\n        /* \"#utility.yul\":6656:6841   */\n    tag_45:\n        /* \"#utility.yul\":6696:6697   */\n      0x00\n        /* \"#utility.yul\":6713:6733   */\n      tag_226\n        /* \"#utility.yul\":6731:6732   */\n      dup3\n        /* \"#utility.yul\":6713:6733   */\n      tag_138\n      jump\t// in\n    tag_226:\n        /* \"#utility.yul\":6708:6733   */\n      swap2\n      pop\n        /* \"#utility.yul\":6747:6767   */\n      tag_227\n        /* \"#utility.yul\":6765:6766   */\n      dup4\n        /* \"#utility.yul\":6747:6767   */\n      tag_138\n      jump\t// in\n    tag_227:\n        /* \"#utility.yul\":6742:6767   */\n      swap3\n      pop\n        /* \"#utility.yul\":6786:6787   */\n      dup3\n        /* \"#utility.yul\":6776:6811   */\n      tag_228\n      jumpi\n        /* \"#utility.yul\":6791:6809   */\n      tag_229\n      tag_157\n      jump\t// in\n    tag_229:\n        /* \"#utility.yul\":6776:6811   */\n    tag_228:\n        /* \"#utility.yul\":6833:6834   */\n      dup3\n        /* \"#utility.yul\":6830:6831   */\n      dup3\n        /* \"#utility.yul\":6826:6835   */\n      div\n        /* \"#utility.yul\":6821:6835   */\n      swap1\n      pop\n        /* \"#utility.yul\":6656:6841   */\n      swap3\n      swap2\n      pop\n      pop\n      jump\t// out\n        /* \"#utility.yul\":6847:7085   */\n    tag_158:\n        /* \"#utility.yul\":6987:7021   */\n      0x426964206d757374206265206174206c65617374203525206772656174657220\n        /* \"#utility.yul\":6983:6984   */\n      0x00\n        /* \"#utility.yul\":6975:6981   */\n      dup3\n        /* \"#utility.yul\":6971:6985   */\n      add\n        /* \"#utility.yul\":6964:7022   */\n      mstore\n        /* \"#utility.yul\":7056:7077   */\n      0x7468616e2063757272656e742077696e6e657200000000000000000000000000\n        /* \"#utility.yul\":7051:7053   */\n      0x20\n        /* \"#utility.yul\":7043:7049   */\n      dup3\n        /* \"#utility.yul\":7039:7054   */\n      add\n        /* \"#utility.yul\":7032:7078   */\n      mstore\n        /* \"#utility.yul\":6847:7085   */\n      pop\n      jump\t// out\n        /* \"#utility.yul\":7091:7457   */\n    tag_159:\n        /* \"#utility.yul\":7233:7236   */\n      0x00\n        /* \"#utility.yul\":7254:7321   */\n      tag_232\n        /* \"#utility.yul\":7318:7320   */\n      0x33\n        /* \"#utility.yul\":7313:7316   */\n      dup4\n        /* \"#utility.yul\":7254:7321   */\n      tag_153\n      jump\t// in\n    tag_232:\n        /* \"#utility.yul\":7247:7321   */\n      swap2\n      pop\n        /* \"#utility.yul\":7330:7423   */\n      tag_233\n        /* \"#utility.yul\":7419:7422   */\n      dup3\n        /* \"#utility.yul\":7330:7423   */\n      tag_158\n      jump\t// in\n    tag_233:\n        /* \"#utility.yul\":7448:7450   */\n      0x40\n        /* \"#utility.yul\":7443:7446   */\n      dup3\n        /* \"#utility.yul\":7439:7451   */\n      add\n        /* \"#utility.yul\":7432:7451   */\n      swap1\n      pop\n        /* \"#utility.yul\":7091:7457   */\n      swap2\n      swap1\n      pop\n      jump\t// out\n        /* \"#utility.yul\":7463:7882   */\n    tag_48:\n        /* \"#utility.yul\":7629:7633   */\n      0x00\n        /* \"#utility.yul\":7667:7669   */\n      0x20\n        /* \"#utility.yul\":7656:7665   */\n      dup3\n        /* \"#utility.yul\":7652:7670   */\n      add\n        /* \"#utility.yul\":7644:7670   */\n      swap1\n      pop\n        /* \"#utility.yul\":7716:7725   */\n      dup2\n        /* \"#utility.yul\":7710:7714   */\n      dup2\n        /* \"#utility.yul\":7706:7726   */\n      sub\n        /* \"#utility.yul\":7702:7703   */\n      0x00\n        /* \"#utility.yul\":7691:7700   */\n      dup4\n        /* \"#utility.yul\":7687:7704   */\n      add\n        /* \"#utility.yul\":7680:7727   */\n      mstore\n        /* \"#utility.yul\":7744:7875   */\n      tag_235\n        /* \"#utility.yul\":7870:7874   */\n      dup2\n        /* \"#utility.yul\":7744:7875   */\n      tag_159\n      jump\t// in\n    tag_235:\n        /* \"#utility.yul\":7736:7875   */\n      swap1\n      pop\n        /* \"#utility.yul\":7463:7882   */\n      swap2\n      swap1\n      pop\n      jump\t// out\n        /* \"#utility.yul\":7888:8079   */\n    tag_53:\n        /* \"#utility.yul\":7928:7931   */\n      0x00\n        /* \"#utility.yul\":7947:7967   */\n      tag_237\n        /* \"#utility.yul\":7965:7966   */\n      dup3\n        /* \"#utility.yul\":7947:7967   */\n      tag_138\n      jump\t// in\n    tag_237:\n        /* \"#utility.yul\":7942:7967   */\n      swap2\n      pop\n        /* \"#utility.yul\":7981:8001   */\n      tag_238\n        /* \"#utility.yul\":7999:8000   */\n      dup4\n        /* \"#utility.yul\":7981:8001   */\n      tag_138\n      jump\t// in\n    tag_238:\n        /* \"#utility.yul\":7976:8001   */\n      swap3\n      pop\n        /* \"#utility.yul\":8024:8025   */\n      dup3\n        /* \"#utility.yul\":8021:8022   */\n      dup3\n        /* \"#utility.yul\":8017:8026   */\n      add\n        /* \"#utility.yul\":8010:8026   */\n      swap1\n      pop\n        /* \"#utility.yul\":8045:8048   */\n      dup1\n        /* \"#utility.yul\":8042:8043   */\n      dup3\n        /* \"#utility.yul\":8039:8049   */\n      gt\n        /* \"#utility.yul\":8036:8072   */\n      iszero\n      tag_239\n      jumpi\n        /* \"#utility.yul\":8052:8070   */\n      tag_240\n      tag_156\n      jump\t// in\n    tag_240:\n        /* \"#utility.yul\":8036:8072   */\n    tag_239:\n        /* \"#utility.yul\":7888:8079   */\n      swap3\n      swap2\n      pop\n      pop\n      jump\t// out\n        /* \"#utility.yul\":8085:8279   */\n    tag_55:\n        /* \"#utility.yul\":8125:8129   */\n      0x00\n        /* \"#utility.yul\":8145:8165   */\n      tag_242\n        /* \"#utility.yul\":8163:8164   */\n      dup3\n        /* \"#utility.yul\":8145:8165   */\n      tag_138\n      jump\t// in\n    tag_242:\n        /* \"#utility.yul\":8140:8165   */\n      swap2\n      pop\n        /* \"#utility.yul\":8179:8199   */\n      tag_243\n        /* \"#utility.yul\":8197:8198   */\n      dup4\n        /* \"#utility.yul\":8179:8199   */\n      tag_138\n      jump\t// in\n    tag_243:\n        /* \"#utility.yul\":8174:8199   */\n      swap3\n      pop\n        /* \"#utility.yul\":8223:8224   */\n      dup3\n        /* \"#utility.yul\":8220:8221   */\n      dup3\n        /* \"#utility.yul\":8216:8225   */\n      sub\n        /* \"#utility.yul\":8208:8225   */\n      swap1\n      pop\n        /* \"#utility.yul\":8247:8248   */\n      dup2\n        /* \"#utility.yul\":8241:8245   */\n      dup2\n        /* \"#utility.yul\":8238:8249   */\n      gt\n        /* \"#utility.yul\":8235:8272   */\n      iszero\n      tag_244\n      jumpi\n        /* \"#utility.yul\":8252:8270   */\n      tag_245\n      tag_156\n      jump\t// in\n    tag_245:\n        /* \"#utility.yul\":8235:8272   */\n    tag_244:\n        /* \"#utility.yul\":8085:8279   */\n      swap3\n      swap2\n      pop\n      pop\n      jump\t// out\n        /* \"#utility.yul\":8285:8465   */\n    tag_58:\n        /* \"#utility.yul\":8333:8410   */\n      0x4e487b7100000000000000000000000000000000000000000000000000000000\n        /* \"#utility.yul\":8330:8331   */\n      0x00\n        /* \"#utility.yul\":8323:8411   */\n      mstore\n        /* \"#utility.yul\":8430:8434   */\n      0x32\n        /* \"#utility.yul\":8427:8428   */\n      0x04\n        /* \"#utility.yul\":8420:8435   */\n      mstore\n        /* \"#utility.yul\":8454:8458   */\n      0x24\n        /* \"#utility.yul\":8451:8452   */\n      0x00\n        /* \"#utility.yul\":8444:8459   */\n      revert\n        /* \"#utility.yul\":8471:8693   */\n    tag_65:\n        /* \"#utility.yul\":8564:8568   */\n      0x00\n        /* \"#utility.yul\":8602:8604   */\n      0x20\n        /* \"#utility.yul\":8591:8600   */\n      dup3\n        /* \"#utility.yul\":8587:8605   */\n      add\n        /* \"#utility.yul\":8579:8605   */\n      swap1\n      pop\n        /* \"#utility.yul\":8615:8686   */\n      tag_248\n        /* \"#utility.yul\":8683:8684   */\n      0x00\n        /* \"#utility.yul\":8672:8681   */\n      dup4\n        /* \"#utility.yul\":8668:8685   */\n      add\n        /* \"#utility.yul\":8659:8665   */\n      dup5\n        /* \"#utility.yul\":8615:8686   */\n      tag_139\n      jump\t// in\n    tag_248:\n        /* \"#utility.yul\":8471:8693   */\n      swap3\n      swap2\n      pop\n      pop\n      jump\t// out\n        /* \"#utility.yul\":8699:8868   */\n    tag_160:\n        /* \"#utility.yul\":8839:8860   */\n      0x4f6e6c7920636f6e7472616374206f776e657200000000000000000000000000\n        /* \"#utility.yul\":8835:8836   */\n      0x00\n        /* \"#utility.yul\":8827:8833   */\n      dup3\n        /* \"#utility.yul\":8823:8837   */\n      add\n        /* \"#utility.yul\":8816:8861   */\n      mstore\n        /* \"#utility.yul\":8699:8868   */\n      pop\n      jump\t// out\n        /* \"#utility.yul\":8874:9240   */\n    tag_161:\n        /* \"#utility.yul\":9016:9019   */\n      0x00\n        /* \"#utility.yul\":9037:9104   */\n      tag_251\n        /* \"#utility.yul\":9101:9103   */\n      0x13\n        /* \"#utility.yul\":9096:9099   */\n      dup4\n        /* \"#utility.yul\":9037:9104   */\n      tag_153\n      jump\t// in\n    tag_251:\n        /* \"#utility.yul\":9030:9104   */\n      swap2\n      pop\n        /* \"#utility.yul\":9113:9206   */\n      tag_252\n        /* \"#utility.yul\":9202:9205   */\n      dup3\n        /* \"#utility.yul\":9113:9206   */\n      tag_160\n      jump\t// in\n    tag_252:\n        /* \"#utility.yul\":9231:9233   */\n      0x20\n        /* \"#utility.yul\":9226:9229   */\n      dup3\n        /* \"#utility.yul\":9222:9234   */\n      add\n        /* \"#utility.yul\":9215:9234   */\n      swap1\n      pop\n        /* \"#utility.yul\":8874:9240   */\n      swap2\n      swap1\n      pop\n      jump\t// out\n        /* \"#utility.yul\":9246:9665   */\n    tag_76:\n        /* \"#utility.yul\":9412:9416   */\n      0x00\n        /* \"#utility.yul\":9450:9452   */\n      0x20\n        /* \"#utility.yul\":9439:9448   */\n      dup3\n        /* \"#utility.yul\":9435:9453   */\n      add\n        /* \"#utility.yul\":9427:9453   */\n      swap1\n      pop\n        /* \"#utility.yul\":9499:9508   */\n      dup2\n        /* \"#utility.yul\":9493:9497   */\n      dup2\n        /* \"#utility.yul\":9489:9509   */\n      sub\n        /* \"#utility.yul\":9485:9486   */\n      0x00\n        /* \"#utility.yul\":9474:9483   */\n      dup4\n        /* \"#utility.yul\":9470:9487   */\n      add\n        /* \"#utility.yul\":9463:9510   */\n      mstore\n        /* \"#utility.yul\":9527:9658   */\n      tag_254\n        /* \"#utility.yul\":9653:9657   */\n      dup2\n        /* \"#utility.yul\":9527:9658   */\n      tag_161\n      jump\t// in\n    tag_254:\n        /* \"#utility.yul\":9519:9658   */\n      swap1\n      pop\n        /* \"#utility.yul\":9246:9665   */\n      swap2\n      swap1\n      pop\n      jump\t// out\n        /* \"#utility.yul\":9671:9841   */\n    tag_162:\n        /* \"#utility.yul\":9811:9833   */\n      0x41756374696f6e206973206e6f7420656e646564000000000000000000000000\n        /* \"#utility.yul\":9807:9808   */\n      0x00\n        /* \"#utility.yul\":9799:9805   */\n      dup3\n        /* \"#utility.yul\":9795:9809   */\n      add\n        /* \"#utility.yul\":9788:9834   */\n      mstore\n        /* \"#utility.yul\":9671:9841   */\n      pop\n      jump\t// out\n        /* \"#utility.yul\":9847:10213   */\n    tag_163:\n        /* \"#utility.yul\":9989:9992   */\n      0x00\n        /* \"#utility.yul\":10010:10077   */\n      tag_257\n        /* \"#utility.yul\":10074:10076   */\n      0x14\n        /* \"#utility.yul\":10069:10072   */\n      dup4\n        /* \"#utility.yul\":10010:10077   */\n      tag_153\n      jump\t// in\n    tag_257:\n        /* \"#utility.yul\":10003:10077   */\n      swap2\n      pop\n        /* \"#utility.yul\":10086:10179   */\n      tag_258\n        /* \"#utility.yul\":10175:10178   */\n      dup3\n        /* \"#utility.yul\":10086:10179   */\n      tag_162\n      jump\t// in\n    tag_258:\n        /* \"#utility.yul\":10204:10206   */\n      0x20\n        /* \"#utility.yul\":10199:10202   */\n      dup3\n        /* \"#utility.yul\":10195:10207   */\n      add\n        /* \"#utility.yul\":10188:10207   */\n      swap1\n      pop\n        /* \"#utility.yul\":9847:10213   */\n      swap2\n      swap1\n      pop\n      jump\t// out\n        /* \"#utility.yul\":10219:10638   */\n    tag_80:\n        /* \"#utility.yul\":10385:10389   */\n      0x00\n        /* \"#utility.yul\":10423:10425   */\n      0x20\n        /* \"#utility.yul\":10412:10421   */\n      dup3\n        /* \"#utility.yul\":10408:10426   */\n      add\n        /* \"#utility.yul\":10400:10426   */\n      swap1\n      pop\n        /* \"#utility.yul\":10472:10481   */\n      dup2\n        /* \"#utility.yul\":10466:10470   */\n      dup2\n        /* \"#utility.yul\":10462:10482   */\n      sub\n        /* \"#utility.yul\":10458:10459   */\n      0x00\n        /* \"#utility.yul\":10447:10456   */\n      dup4\n        /* \"#utility.yul\":10443:10460   */\n      add\n        /* \"#utility.yul\":10436:10483   */\n      mstore\n        /* \"#utility.yul\":10500:10631   */\n      tag_260\n        /* \"#utility.yul\":10626:10630   */\n      dup2\n        /* \"#utility.yul\":10500:10631   */\n      tag_163\n      jump\t// in\n    tag_260:\n        /* \"#utility.yul\":10492:10631   */\n      swap1\n      pop\n        /* \"#utility.yul\":10219:10638   */\n      swap2\n      swap1\n      pop\n      jump\t// out\n        /* \"#utility.yul\":10644:10877   */\n    tag_95:\n        /* \"#utility.yul\":10683:10686   */\n      0x00\n        /* \"#utility.yul\":10706:10730   */\n      tag_262\n        /* \"#utility.yul\":10724:10729   */\n      dup3\n        /* \"#utility.yul\":10706:10730   */\n      tag_138\n      jump\t// in\n    tag_262:\n        /* \"#utility.yul\":10697:10730   */\n      swap2\n      pop\n        /* \"#utility.yul\":10752:10818   */\n      0xffffffffffffffffffffffffffffffffffffffffffffffffffffffffffffffff\n        /* \"#utility.yul\":10745:10750   */\n      dup3\n        /* \"#utility.yul\":10742:10819   */\n      sub\n        /* \"#utility.yul\":10739:10842   */\n      tag_263\n      jumpi\n        /* \"#utility.yul\":10822:10840   */\n      tag_264\n      tag_156\n      jump\t// in\n    tag_264:\n        /* \"#utility.yul\":10739:10842   */\n    tag_263:\n        /* \"#utility.yul\":10869:10870   */\n      0x01\n        /* \"#utility.yul\":10862:10867   */\n      dup3\n        /* \"#utility.yul\":10858:10871   */\n      add\n        /* \"#utility.yul\":10851:10871   */\n      swap1\n      pop\n        /* \"#utility.yul\":10644:10877   */\n      swap2\n      swap1\n      pop\n      jump\t// out\n        /* \"#utility.yul\":10883:11325   */\n    tag_110:\n        /* \"#utility.yul\":11032:11036   */\n      0x00\n        /* \"#utility.yul\":11070:11072   */\n      0x60\n        /* \"#utility.yul\":11059:11068   */\n      dup3\n        /* \"#utility.yul\":11055:11073   */\n      add\n        /* \"#utility.yul\":11047:11073   */\n      swap1\n      pop\n        /* \"#utility.yul\":11083:11154   */\n      tag_266\n        /* \"#utility.yul\":11151:11152   */\n      0x00\n        /* \"#utility.yul\":11140:11149   */\n      dup4\n        /* \"#utility.yul\":11136:11153   */\n      add\n        /* \"#utility.yul\":11127:11133   */\n      dup7\n        /* \"#utility.yul\":11083:11154   */\n      tag_139\n      jump\t// in\n    tag_266:\n        /* \"#utility.yul\":11164:11236   */\n      tag_267\n        /* \"#utility.yul\":11232:11234   */\n      0x20\n        /* \"#utility.yul\":11221:11230   */\n      dup4\n        /* \"#utility.yul\":11217:11235   */\n      add\n        /* \"#utility.yul\":11208:11214   */\n      dup6\n        /* \"#utility.yul\":11164:11236   */\n      tag_139\n      jump\t// in\n    tag_267:\n        /* \"#utility.yul\":11246:11318   */\n      tag_268\n        /* \"#utility.yul\":11314:11316   */\n      0x40\n        /* \"#utility.yul\":11303:11312   */\n      dup4\n        /* \"#utility.yul\":11299:11317   */\n      add\n        /* \"#utility.yul\":11290:11296   */\n      dup5\n        /* \"#utility.yul\":11246:11318   */\n      tag_139\n      jump\t// in\n    tag_268:\n        /* \"#utility.yul\":10883:11325   */\n      swap5\n      swap4\n      pop\n      pop\n      pop\n      pop\n      jump\t// out\n        /* \"#utility.yul\":11331:11556   */\n    tag_164:\n        /* \"#utility.yul\":11471:11505   */\n      0x496e76616c6964206164647265737320746f20646f2061207061727469616c20\n        /* \"#utility.yul\":11467:11468   */\n      0x00\n        /* \"#utility.yul\":11459:11465   */\n      dup3\n        /* \"#utility.yul\":11455:11469   */\n      add\n        /* \"#utility.yul\":11448:11506   */\n      mstore\n        /* \"#utility.yul\":11540:11548   */\n      0x726566756e640000000000000000000000000000000000000000000000000000\n        /* \"#utility.yul\":11535:11537   */\n      0x20\n        /* \"#utility.yul\":11527:11533   */\n      dup3\n        /* \"#utility.yul\":11523:11538   */\n      add\n        /* \"#utility.yul\":11516:11549   */\n      mstore\n        /* \"#utility.yul\":11331:11556   */\n      pop\n      jump\t// out\n        /* \"#utility.yul\":11562:11928   */\n    tag_165:\n        /* \"#utility.yul\":11704:11707   */\n      0x00\n        /* \"#utility.yul\":11725:11792   */\n      tag_271\n        /* \"#utility.yul\":11789:11791   */\n      0x26\n        /* \"#utility.yul\":11784:11787   */\n      dup4\n        /* \"#utility.yul\":11725:11792   */\n      tag_153\n      jump\t// in\n    tag_271:\n        /* \"#utility.yul\":11718:11792   */\n      swap2\n      pop\n        /* \"#utility.yul\":11801:11894   */\n      tag_272\n        /* \"#utility.yul\":11890:11893   */\n      dup3\n        /* \"#utility.yul\":11801:11894   */\n      tag_164\n      jump\t// in\n    tag_272:\n        /* \"#utility.yul\":11919:11921   */\n      0x40\n        /* \"#utility.yul\":11914:11917   */\n      dup3\n        /* \"#utility.yul\":11910:11922   */\n      add\n        /* \"#utility.yul\":11903:11922   */\n      swap1\n      pop\n        /* \"#utility.yul\":11562:11928   */\n      swap2\n      swap1\n      pop\n      jump\t// out\n        /* \"#utility.yul\":11934:12353   */\n    tag_121:\n        /* \"#utility.yul\":12100:12104   */\n      0x00\n        /* \"#utility.yul\":12138:12140   */\n      0x20\n        /* \"#utility.yul\":12127:12136   */\n      dup3\n        /* \"#utility.yul\":12123:12141   */\n      add\n        /* \"#utility.yul\":12115:12141   */\n      swap1\n      pop\n        /* \"#utility.yul\":12187:12196   */\n      dup2\n        /* \"#utility.yul\":12181:12185   */\n      dup2\n        /* \"#utility.yul\":12177:12197   */\n      sub\n        /* \"#utility.yul\":12173:12174   */\n      0x00\n        /* \"#utility.yul\":12162:12171   */\n      dup4\n        /* \"#utility.yul\":12158:12175   */\n      add\n        /* \"#utility.yul\":12151:12198   */\n      mstore\n        /* \"#utility.yul\":12215:12346   */\n      tag_274\n        /* \"#utility.yul\":12341:12345   */\n      dup2\n        /* \"#utility.yul\":12215:12346   */\n      tag_165\n      jump\t// in\n    tag_274:\n        /* \"#utility.yul\":12207:12346   */\n      swap1\n      pop\n        /* \"#utility.yul\":11934:12353   */\n      swap2\n      swap1\n      pop\n      jump\t// out\n        /* \"#utility.yul\":12359:12599   */\n    tag_166:\n        /* \"#utility.yul\":12499:12533   */\n      0x546f74616c20626964202d206c61737420616363657074656420626964206d75\n        /* \"#utility.yul\":12495:12496   */\n      0x00\n        /* \"#utility.yul\":12487:12493   */\n      dup3\n        /* \"#utility.yul\":12483:12497   */\n      add\n        /* \"#utility.yul\":12476:12534   */\n      mstore\n        /* \"#utility.yul\":12568:12591   */\n      0x7374206265206772656174686572207468616e20300000000000000000000000\n        /* \"#utility.yul\":12563:12565   */\n      0x20\n        /* \"#utility.yul\":12555:12561   */\n      dup3\n        /* \"#utility.yul\":12551:12566   */\n      add\n        /* \"#utility.yul\":12544:12592   */\n      mstore\n        /* \"#utility.yul\":12359:12599   */\n      pop\n      jump\t// out\n        /* \"#utility.yul\":12605:12971   */\n    tag_167:\n        /* \"#utility.yul\":12747:12750   */\n      0x00\n        /* \"#utility.yul\":12768:12835   */\n      tag_277\n        /* \"#utility.yul\":12832:12834   */\n      0x35\n        /* \"#utility.yul\":12827:12830   */\n      dup4\n        /* \"#utility.yul\":12768:12835   */\n      tag_153\n      jump\t// in\n    tag_277:\n        /* \"#utility.yul\":12761:12835   */\n      swap2\n      pop\n        /* \"#utility.yul\":12844:12937   */\n      tag_278\n        /* \"#utility.yul\":12933:12936   */\n      dup3\n        /* \"#utility.yul\":12844:12937   */\n      tag_166\n      jump\t// in\n    tag_278:\n        /* \"#utility.yul\":12962:12964   */\n      0x40\n        /* \"#utility.yul\":12957:12960   */\n      dup3\n        /* \"#utility.yul\":12953:12965   */\n      add\n        /* \"#utility.yul\":12946:12965   */\n      swap1\n      pop\n        /* \"#utility.yul\":12605:12971   */\n      swap2\n      swap1\n      pop\n      jump\t// out\n        /* \"#utility.yul\":12977:13396   */\n    tag_125:\n        /* \"#utility.yul\":13143:13147   */\n      0x00\n        /* \"#utility.yul\":13181:13183   */\n      0x20\n        /* \"#utility.yul\":13170:13179   */\n      dup3\n        /* \"#utility.yul\":13166:13184   */\n      add\n        /* \"#utility.yul\":13158:13184   */\n      swap1\n      pop\n        /* \"#utility.yul\":13230:13239   */\n      dup2\n        /* \"#utility.yul\":13224:13228   */\n      dup2\n        /* \"#utility.yul\":13220:13240   */\n      sub\n        /* \"#utility.yul\":13216:13217   */\n      0x00\n        /* \"#utility.yul\":13205:13214   */\n      dup4\n        /* \"#utility.yul\":13201:13218   */\n      add\n        /* \"#utility.yul\":13194:13241   */\n      mstore\n        /* \"#utility.yul\":13258:13389   */\n      tag_280\n        /* \"#utility.yul\":13384:13388   */\n      dup2\n        /* \"#utility.yul\":13258:13389   */\n      tag_167\n      jump\t// in\n    tag_280:\n        /* \"#utility.yul\":13250:13389   */\n      swap1\n      pop\n        /* \"#utility.yul\":12977:13396   */\n      swap2\n      swap1\n      pop\n      jump\t// out\n\n    auxdata: 0xa26469706673582212200274596d6a1259650133ee6da47de30fd7c39e5dca3aca6501d8aec9b73a399764736f6c634300081e0033\n}\n",
				"bytecode": {
					"linkReferences": {},
					"object": "6080604052348015600e575f5ffd5b5042600381905550620d2f00426023919060aa565b6004819055506064600281905550335f5f6101000a81548173ffffffffffffffffffffffffffffffffffffffff021916908373ffffffffffffffffffffffffffffffffffffffff16021790555060d6565b5f819050919050565b7f4e487b71000000000000000000000000000000000000000000000000000000005f52601160045260245ffd5b5f60b2826074565b915060bb836074565b925082820190508082111560d05760cf607d565b5b92915050565b6115d0806100e35f395ff3fe60806040526004361061006f575f3560e01c8063c75052711161004d578063c7505271146100d2578063ceb98f6e146100e8578063f90ca11714610113578063fe67a54b146101295761006f565b806312065fe014610073578063782a5c821461009e5780638d0f6da3146100a8575b5f5ffd5b34801561007e575f5ffd5b5061008761013f565b604051610095929190610ef1565b60405180910390f35b6100a66101cb565b005b3480156100b3575f5ffd5b506100bc610645565b6040516100c9919061104e565b60405180910390f35b3480156100dd575f5ffd5b506100e6610709565b005b3480156100f3575f5ffd5b506100fc610a16565b60405161010a92919061108e565b60405180910390f35b34801561011e575f5ffd5b50610127610a8a565b005b348015610134575f5ffd5b5061013d610d93565b005b5f5f60055f3373ffffffffffffffffffffffffffffffffffffffff1673ffffffffffffffffffffffffffffffffffffffff1681526020019081526020015f206001015460055f3373ffffffffffffffffffffffffffffffffffffffff1673ffffffffffffffffffffffffffffffffffffffff1681526020019081526020015f2060020154915091509091565b600454421061020f576040517f08c379a00000000000000000000000000000000000000000000000000000000081526004016102069061110f565b60405180910390fd5b5f3490505f33905060646069600254610228919061115a565b61023291906111c8565b821015610274576040517f08c379a000000000000000000000000000000000000000000000000000000000815260040161026b90611268565b60405180910390fd5b5f60055f8373ffffffffffffffffffffffffffffffffffffffff1673ffffffffffffffffffffffffffffffffffffffff1681526020019081526020015f2090505f73ffffffffffffffffffffffffffffffffffffffff16815f015f9054906101000a900473ffffffffffffffffffffffffffffffffffffffff1673ffffffffffffffffffffffffffffffffffffffff16036104a6575f60405180606001604052808473ffffffffffffffffffffffffffffffffffffffff1681526020018581526020018581525090508060055f8573ffffffffffffffffffffffffffffffffffffffff1673ffffffffffffffffffffffffffffffffffffffff1681526020019081526020015f205f820151815f015f6101000a81548173ffffffffffffffffffffffffffffffffffffffff021916908373ffffffffffffffffffffffffffffffffffffffff1602179055506020820151816001015560408201518160020155905050600681908060018154018082558091505060019003905f5260205f2090600302015f909190919091505f820151815f015f6101000a81548173ffffffffffffffffffffffffffffffffffffffff021916908373ffffffffffffffffffffffffffffffffffffffff1602179055506020820151816001015560408201518160020155505060068054905060075f8573ffffffffffffffffffffffffffffffffffffffff1673ffffffffffffffffffffffffffffffffffffffff1681526020019081526020015f208190555050610579565b82816001018190555082816002015f8282546104c29190611286565b925050819055505f600160075f8573ffffffffffffffffffffffffffffffffffffffff1673ffffffffffffffffffffffffffffffffffffffff1681526020019081526020015f205461051491906112b9565b9050836006828154811061052b5761052a6112ec565b5b905f5260205f209060030201600101819055508360068281548110610553576105526112ec565b5b905f5260205f2090600302016002015f8282546105709190611286565b92505081905550505b826002819055508160015f6101000a81548173ffffffffffffffffffffffffffffffffffffffff021916908373ffffffffffffffffffffffffffffffffffffffff1602179055508173ffffffffffffffffffffffffffffffffffffffff167fdefdc4699ae6600934634bec71e3e4081368537fb24e45ea245b17b8c448c391846040516106069190611319565b60405180910390a261025860045461061e91906112b9565b4211156106405761025860045f8282546106389190611286565b925050819055505b505050565b60606006805480602002602001604051908101604052809291908181526020015f905b82821015610700578382905f5260205f2090600302016040518060600160405290815f82015f9054906101000a900473ffffffffffffffffffffffffffffffffffffffff1673ffffffffffffffffffffffffffffffffffffffff1673ffffffffffffffffffffffffffffffffffffffff1681526020016001820154815260200160028201548152505081526020019060010190610668565b50505050905090565b5f5f9054906101000a900473ffffffffffffffffffffffffffffffffffffffff1673ffffffffffffffffffffffffffffffffffffffff163373ffffffffffffffffffffffffffffffffffffffff1614610797576040517f08c379a000000000000000000000000000000000000000000000000000000000815260040161078e9061137c565b60405180910390fd5b6004544210156107dc576040517f08c379a00000000000000000000000000000000000000000000000000000000081526004016107d3906113e4565b60405180910390fd5b5f60068054905090505f5f5f5f5f90505b848110156109ae575f6006828154811061080a576108096112ec565b5b905f5260205f20906003020160020154905060015f9054906101000a900473ffffffffffffffffffffffffffffffffffffffff1673ffffffffffffffffffffffffffffffffffffffff1660068381548110610868576108676112ec565b5b905f5260205f2090600302015f015f9054906101000a900473ffffffffffffffffffffffffffffffffffffffff1673ffffffffffffffffffffffffffffffffffffffff16141580156108b957505f81115b156109a05780856108ca9190611286565b945082806108d790611402565b935050600682815481106108ee576108ed6112ec565b5b905f5260205f2090600302015f015f9054906101000a900473ffffffffffffffffffffffffffffffffffffffff1673ffffffffffffffffffffffffffffffffffffffff166108fc6064606284610944919061115a565b61094e91906111c8565b90811502906040515f60405180830381858888f19350505050158015610976573d5f5f3e3d5ffd5b505f6006838154811061098c5761098b6112ec565b5b905f5260205f209060030201600201819055505b5080806001019150506107ed565b5060646062846109be919061115a565b6109c891906111c8565b836109d391906112b9565b91507f05dfbfb672ffab2921c60754df242659e83c6eda1bfe5401bd054b8170ede1ff838383604051610a0893929190611449565b60405180910390a150505050565b5f5f600454421015610a5d576040517f08c379a0000000000000000000000000000000000000000000000000000000008152600401610a54906113e4565b60405180910390fd5b60015f9054906101000a900473ffffffffffffffffffffffffffffffffffffffff16600254915091509091565b6004544210610ace576040517f08c379a0000000000000000000000000000000000000000000000000000000008152600401610ac59061110f565b60405180910390fd5b5f3390505f73ffffffffffffffffffffffffffffffffffffffff1660055f8373ffffffffffffffffffffffffffffffffffffffff1673ffffffffffffffffffffffffffffffffffffffff1681526020019081526020015f205f015f9054906101000a900473ffffffffffffffffffffffffffffffffffffffff1673ffffffffffffffffffffffffffffffffffffffff1603610b9e576040517f08c379a0000000000000000000000000000000000000000000000000000000008152600401610b95906114ee565b60405180910390fd5b5f60055f8373ffffffffffffffffffffffffffffffffffffffff1673ffffffffffffffffffffffffffffffffffffffff1681526020019081526020015f206001015460055f8473ffffffffffffffffffffffffffffffffffffffff1673ffffffffffffffffffffffffffffffffffffffff1681526020019081526020015f2060020154610c2b91906112b9565b90505f8111610c6f576040517f08c379a0000000000000000000000000000000000000000000000000000000008152600401610c669061157c565b60405180910390fd5b5f811115610d8f578173ffffffffffffffffffffffffffffffffffffffff166108fc8290811502906040515f60405180830381858888f19350505050158015610cba573d5f5f3e3d5ffd5b5060055f8373ffffffffffffffffffffffffffffffffffffffff1673ffffffffffffffffffffffffffffffffffffffff1681526020019081526020015f206001015460055f8473ffffffffffffffffffffffffffffffffffffffff1673ffffffffffffffffffffffffffffffffffffffff1681526020019081526020015f20600201819055508173ffffffffffffffffffffffffffffffffffffffff167fd84fcbac5440aedda6d2b5f149aa3182c87252eef5bab6f061cfe022a3e166ef82604051610d869190611319565b60405180910390a25b5050565b5f5f9054906101000a900473ffffffffffffffffffffffffffffffffffffffff1673ffffffffffffffffffffffffffffffffffffffff163373ffffffffffffffffffffffffffffffffffffffff1614610e21576040517f08c379a0000000000000000000000000000000000000000000000000000000008152600401610e189061137c565b60405180910390fd5b600454421015610e66576040517f08c379a0000000000000000000000000000000000000000000000000000000008152600401610e5d906113e4565b60405180910390fd5b60015f9054906101000a900473ffffffffffffffffffffffffffffffffffffffff1673ffffffffffffffffffffffffffffffffffffffff167fdaec4582d5d9595688c8c98545fdd1c696d41c6aeaeb636737e84ed2f5c00eda600254604051610ecf9190611319565b60405180910390a2565b5f819050919050565b610eeb81610ed9565b82525050565b5f604082019050610f045f830185610ee2565b610f116020830184610ee2565b9392505050565b5f81519050919050565b5f82825260208201905092915050565b5f819050602082019050919050565b5f73ffffffffffffffffffffffffffffffffffffffff82169050919050565b5f610f6a82610f41565b9050919050565b610f7a81610f60565b82525050565b610f8981610ed9565b82525050565b606082015f820151610fa35f850182610f71565b506020820151610fb66020850182610f80565b506040820151610fc96040850182610f80565b50505050565b5f610fda8383610f8f565b60608301905092915050565b5f602082019050919050565b5f610ffc82610f18565b6110068185610f22565b935061101183610f32565b805f5b838110156110415781516110288882610fcf565b975061103383610fe6565b925050600181019050611014565b5085935050505092915050565b5f6020820190508181035f8301526110668184610ff2565b905092915050565b5f61107882610f41565b9050919050565b6110888161106e565b82525050565b5f6040820190506110a15f83018561107f565b6110ae6020830184610ee2565b9392505050565b5f82825260208201905092915050565b7f41756374696f6e2077617320656e6465640000000000000000000000000000005f82015250565b5f6110f96011836110b5565b9150611104826110c5565b602082019050919050565b5f6020820190508181035f830152611126816110ed565b9050919050565b7f4e487b71000000000000000000000000000000000000000000000000000000005f52601160045260245ffd5b5f61116482610ed9565b915061116f83610ed9565b925082820261117d81610ed9565b915082820484148315176111945761119361112d565b5b5092915050565b7f4e487b71000000000000000000000000000000000000000000000000000000005f52601260045260245ffd5b5f6111d282610ed9565b91506111dd83610ed9565b9250826111ed576111ec61119b565b5b828204905092915050565b7f426964206d757374206265206174206c656173742035252067726561746572205f8201527f7468616e2063757272656e742077696e6e657200000000000000000000000000602082015250565b5f6112526033836110b5565b915061125d826111f8565b604082019050919050565b5f6020820190508181035f83015261127f81611246565b9050919050565b5f61129082610ed9565b915061129b83610ed9565b92508282019050808211156112b3576112b261112d565b5b92915050565b5f6112c382610ed9565b91506112ce83610ed9565b92508282039050818111156112e6576112e561112d565b5b92915050565b7f4e487b71000000000000000000000000000000000000000000000000000000005f52603260045260245ffd5b5f60208201905061132c5f830184610ee2565b92915050565b7f4f6e6c7920636f6e7472616374206f776e6572000000000000000000000000005f82015250565b5f6113666013836110b5565b915061137182611332565b602082019050919050565b5f6020820190508181035f8301526113938161135a565b9050919050565b7f41756374696f6e206973206e6f7420656e6465640000000000000000000000005f82015250565b5f6113ce6014836110b5565b91506113d98261139a565b602082019050919050565b5f6020820190508181035f8301526113fb816113c2565b9050919050565b5f61140c82610ed9565b91507fffffffffffffffffffffffffffffffffffffffffffffffffffffffffffffffff820361143e5761143d61112d565b5b600182019050919050565b5f60608201905061145c5f830186610ee2565b6114696020830185610ee2565b6114766040830184610ee2565b949350505050565b7f496e76616c6964206164647265737320746f20646f2061207061727469616c205f8201527f726566756e640000000000000000000000000000000000000000000000000000602082015250565b5f6114d86026836110b5565b91506114e38261147e565b604082019050919050565b5f6020820190508181035f830152611505816114cc565b9050919050565b7f546f74616c20626964202d206c61737420616363657074656420626964206d755f8201527f7374206265206772656174686572207468616e20300000000000000000000000602082015250565b5f6115666035836110b5565b91506115718261150c565b604082019050919050565b5f6020820190508181035f8301526115938161155a565b905091905056fea26469706673582212200274596d6a1259650133ee6da47de30fd7c39e5dca3aca6501d8aec9b73a399764736f6c634300081e0033",
					"opcodes": "PUSH1 0x80 PUSH1 0x40 MSTORE CALLVALUE DUP1 ISZERO PUSH1 0xE JUMPI PUSH0 PUSH0 REVERT JUMPDEST POP TIMESTAMP PUSH1 0x3 DUP2 SWAP1 SSTORE POP PUSH3 0xD2F00 TIMESTAMP PUSH1 0x23 SWAP2 SWAP1 PUSH1 0xAA JUMP JUMPDEST PUSH1 0x4 DUP2 SWAP1 SSTORE POP PUSH1 0x64 PUSH1 0x2 DUP2 SWAP1 SSTORE POP CALLER PUSH0 PUSH0 PUSH2 0x100 EXP DUP2 SLOAD DUP2 PUSH20 0xFFFFFFFFFFFFFFFFFFFFFFFFFFFFFFFFFFFFFFFF MUL NOT AND SWAP1 DUP4 PUSH20 0xFFFFFFFFFFFFFFFFFFFFFFFFFFFFFFFFFFFFFFFF AND MUL OR SWAP1 SSTORE POP PUSH1 0xD6 JUMP JUMPDEST PUSH0 DUP2 SWAP1 POP SWAP2 SWAP1 POP JUMP JUMPDEST PUSH32 0x4E487B7100000000000000000000000000000000000000000000000000000000 PUSH0 MSTORE PUSH1 0x11 PUSH1 0x4 MSTORE PUSH1 0x24 PUSH0 REVERT JUMPDEST PUSH0 PUSH1 0xB2 DUP3 PUSH1 0x74 JUMP JUMPDEST SWAP2 POP PUSH1 0xBB DUP4 PUSH1 0x74 JUMP JUMPDEST SWAP3 POP DUP3 DUP3 ADD SWAP1 POP DUP1 DUP3 GT ISZERO PUSH1 0xD0 JUMPI PUSH1 0xCF PUSH1 0x7D JUMP JUMPDEST JUMPDEST SWAP3 SWAP2 POP POP JUMP JUMPDEST PUSH2 0x15D0 DUP1 PUSH2 0xE3 PUSH0 CODECOPY PUSH0 RETURN INVALID PUSH1 0x80 PUSH1 0x40 MSTORE PUSH1 0x4 CALLDATASIZE LT PUSH2 0x6F JUMPI PUSH0 CALLDATALOAD PUSH1 0xE0 SHR DUP1 PUSH4 0xC7505271 GT PUSH2 0x4D JUMPI DUP1 PUSH4 0xC7505271 EQ PUSH2 0xD2 JUMPI DUP1 PUSH4 0xCEB98F6E EQ PUSH2 0xE8 JUMPI DUP1 PUSH4 0xF90CA117 EQ PUSH2 0x113 JUMPI DUP1 PUSH4 0xFE67A54B EQ PUSH2 0x129 JUMPI PUSH2 0x6F JUMP JUMPDEST DUP1 PUSH4 0x12065FE0 EQ PUSH2 0x73 JUMPI DUP1 PUSH4 0x782A5C82 EQ PUSH2 0x9E JUMPI DUP1 PUSH4 0x8D0F6DA3 EQ PUSH2 0xA8 JUMPI JUMPDEST PUSH0 PUSH0 REVERT JUMPDEST CALLVALUE DUP1 ISZERO PUSH2 0x7E JUMPI PUSH0 PUSH0 REVERT JUMPDEST POP PUSH2 0x87 PUSH2 0x13F JUMP JUMPDEST PUSH1 0x40 MLOAD PUSH2 0x95 SWAP3 SWAP2 SWAP1 PUSH2 0xEF1 JUMP JUMPDEST PUSH1 0x40 MLOAD DUP1 SWAP2 SUB SWAP1 RETURN JUMPDEST PUSH2 0xA6 PUSH2 0x1CB JUMP JUMPDEST STOP JUMPDEST CALLVALUE DUP1 ISZERO PUSH2 0xB3 JUMPI PUSH0 PUSH0 REVERT JUMPDEST POP PUSH2 0xBC PUSH2 0x645 JUMP JUMPDEST PUSH1 0x40 MLOAD PUSH2 0xC9 SWAP2 SWAP1 PUSH2 0x104E JUMP JUMPDEST PUSH1 0x40 MLOAD DUP1 SWAP2 SUB SWAP1 RETURN JUMPDEST CALLVALUE DUP1 ISZERO PUSH2 0xDD JUMPI PUSH0 PUSH0 REVERT JUMPDEST POP PUSH2 0xE6 PUSH2 0x709 JUMP JUMPDEST STOP JUMPDEST CALLVALUE DUP1 ISZERO PUSH2 0xF3 JUMPI PUSH0 PUSH0 REVERT JUMPDEST POP PUSH2 0xFC PUSH2 0xA16 JUMP JUMPDEST PUSH1 0x40 MLOAD PUSH2 0x10A SWAP3 SWAP2 SWAP1 PUSH2 0x108E JUMP JUMPDEST PUSH1 0x40 MLOAD DUP1 SWAP2 SUB SWAP1 RETURN JUMPDEST CALLVALUE DUP1 ISZERO PUSH2 0x11E JUMPI PUSH0 PUSH0 REVERT JUMPDEST POP PUSH2 0x127 PUSH2 0xA8A JUMP JUMPDEST STOP JUMPDEST CALLVALUE DUP1 ISZERO PUSH2 0x134 JUMPI PUSH0 PUSH0 REVERT JUMPDEST POP PUSH2 0x13D PUSH2 0xD93 JUMP JUMPDEST STOP JUMPDEST PUSH0 PUSH0 PUSH1 0x5 PUSH0 CALLER PUSH20 0xFFFFFFFFFFFFFFFFFFFFFFFFFFFFFFFFFFFFFFFF AND PUSH20 0xFFFFFFFFFFFFFFFFFFFFFFFFFFFFFFFFFFFFFFFF AND DUP2 MSTORE PUSH1 0x20 ADD SWAP1 DUP2 MSTORE PUSH1 0x20 ADD PUSH0 KECCAK256 PUSH1 0x1 ADD SLOAD PUSH1 0x5 PUSH0 CALLER PUSH20 0xFFFFFFFFFFFFFFFFFFFFFFFFFFFFFFFFFFFFFFFF AND PUSH20 0xFFFFFFFFFFFFFFFFFFFFFFFFFFFFFFFFFFFFFFFF AND DUP2 MSTORE PUSH1 0x20 ADD SWAP1 DUP2 MSTORE PUSH1 0x20 ADD PUSH0 KECCAK256 PUSH1 0x2 ADD SLOAD SWAP2 POP SWAP2 POP SWAP1 SWAP2 JUMP JUMPDEST PUSH1 0x4 SLOAD TIMESTAMP LT PUSH2 0x20F JUMPI PUSH1 0x40 MLOAD PUSH32 0x8C379A000000000000000000000000000000000000000000000000000000000 DUP2 MSTORE PUSH1 0x4 ADD PUSH2 0x206 SWAP1 PUSH2 0x110F JUMP JUMPDEST PUSH1 0x40 MLOAD DUP1 SWAP2 SUB SWAP1 REVERT JUMPDEST PUSH0 CALLVALUE SWAP1 POP PUSH0 CALLER SWAP1 POP PUSH1 0x64 PUSH1 0x69 PUSH1 0x2 SLOAD PUSH2 0x228 SWAP2 SWAP1 PUSH2 0x115A JUMP JUMPDEST PUSH2 0x232 SWAP2 SWAP1 PUSH2 0x11C8 JUMP JUMPDEST DUP3 LT ISZERO PUSH2 0x274 JUMPI PUSH1 0x40 MLOAD PUSH32 0x8C379A000000000000000000000000000000000000000000000000000000000 DUP2 MSTORE PUSH1 0x4 ADD PUSH2 0x26B SWAP1 PUSH2 0x1268 JUMP JUMPDEST PUSH1 0x40 MLOAD DUP1 SWAP2 SUB SWAP1 REVERT JUMPDEST PUSH0 PUSH1 0x5 PUSH0 DUP4 PUSH20 0xFFFFFFFFFFFFFFFFFFFFFFFFFFFFFFFFFFFFFFFF AND PUSH20 0xFFFFFFFFFFFFFFFFFFFFFFFFFFFFFFFFFFFFFFFF AND DUP2 MSTORE PUSH1 0x20 ADD SWAP1 DUP2 MSTORE PUSH1 0x20 ADD PUSH0 KECCAK256 SWAP1 POP PUSH0 PUSH20 0xFFFFFFFFFFFFFFFFFFFFFFFFFFFFFFFFFFFFFFFF AND DUP2 PUSH0 ADD PUSH0 SWAP1 SLOAD SWAP1 PUSH2 0x100 EXP SWAP1 DIV PUSH20 0xFFFFFFFFFFFFFFFFFFFFFFFFFFFFFFFFFFFFFFFF AND PUSH20 0xFFFFFFFFFFFFFFFFFFFFFFFFFFFFFFFFFFFFFFFF AND SUB PUSH2 0x4A6 JUMPI PUSH0 PUSH1 0x40 MLOAD DUP1 PUSH1 0x60 ADD PUSH1 0x40 MSTORE DUP1 DUP5 PUSH20 0xFFFFFFFFFFFFFFFFFFFFFFFFFFFFFFFFFFFFFFFF AND DUP2 MSTORE PUSH1 0x20 ADD DUP6 DUP2 MSTORE PUSH1 0x20 ADD DUP6 DUP2 MSTORE POP SWAP1 POP DUP1 PUSH1 0x5 PUSH0 DUP6 PUSH20 0xFFFFFFFFFFFFFFFFFFFFFFFFFFFFFFFFFFFFFFFF AND PUSH20 0xFFFFFFFFFFFFFFFFFFFFFFFFFFFFFFFFFFFFFFFF AND DUP2 MSTORE PUSH1 0x20 ADD SWAP1 DUP2 MSTORE PUSH1 0x20 ADD PUSH0 KECCAK256 PUSH0 DUP3 ADD MLOAD DUP2 PUSH0 ADD PUSH0 PUSH2 0x100 EXP DUP2 SLOAD DUP2 PUSH20 0xFFFFFFFFFFFFFFFFFFFFFFFFFFFFFFFFFFFFFFFF MUL NOT AND SWAP1 DUP4 PUSH20 0xFFFFFFFFFFFFFFFFFFFFFFFFFFFFFFFFFFFFFFFF AND MUL OR SWAP1 SSTORE POP PUSH1 0x20 DUP3 ADD MLOAD DUP2 PUSH1 0x1 ADD SSTORE PUSH1 0x40 DUP3 ADD MLOAD DUP2 PUSH1 0x2 ADD SSTORE SWAP1 POP POP PUSH1 0x6 DUP2 SWAP1 DUP1 PUSH1 0x1 DUP2 SLOAD ADD DUP1 DUP3 SSTORE DUP1 SWAP2 POP POP PUSH1 0x1 SWAP1 SUB SWAP1 PUSH0 MSTORE PUSH1 0x20 PUSH0 KECCAK256 SWAP1 PUSH1 0x3 MUL ADD PUSH0 SWAP1 SWAP2 SWAP1 SWAP2 SWAP1 SWAP2 POP PUSH0 DUP3 ADD MLOAD DUP2 PUSH0 ADD PUSH0 PUSH2 0x100 EXP DUP2 SLOAD DUP2 PUSH20 0xFFFFFFFFFFFFFFFFFFFFFFFFFFFFFFFFFFFFFFFF MUL NOT AND SWAP1 DUP4 PUSH20 0xFFFFFFFFFFFFFFFFFFFFFFFFFFFFFFFFFFFFFFFF AND MUL OR SWAP1 SSTORE POP PUSH1 0x20 DUP3 ADD MLOAD DUP2 PUSH1 0x1 ADD SSTORE PUSH1 0x40 DUP3 ADD MLOAD DUP2 PUSH1 0x2 ADD SSTORE POP POP PUSH1 0x6 DUP1 SLOAD SWAP1 POP PUSH1 0x7 PUSH0 DUP6 PUSH20 0xFFFFFFFFFFFFFFFFFFFFFFFFFFFFFFFFFFFFFFFF AND PUSH20 0xFFFFFFFFFFFFFFFFFFFFFFFFFFFFFFFFFFFFFFFF AND DUP2 MSTORE PUSH1 0x20 ADD SWAP1 DUP2 MSTORE PUSH1 0x20 ADD PUSH0 KECCAK256 DUP2 SWAP1 SSTORE POP POP PUSH2 0x579 JUMP JUMPDEST DUP3 DUP2 PUSH1 0x1 ADD DUP2 SWAP1 SSTORE POP DUP3 DUP2 PUSH1 0x2 ADD PUSH0 DUP3 DUP3 SLOAD PUSH2 0x4C2 SWAP2 SWAP1 PUSH2 0x1286 JUMP JUMPDEST SWAP3 POP POP DUP2 SWAP1 SSTORE POP PUSH0 PUSH1 0x1 PUSH1 0x7 PUSH0 DUP6 PUSH20 0xFFFFFFFFFFFFFFFFFFFFFFFFFFFFFFFFFFFFFFFF AND PUSH20 0xFFFFFFFFFFFFFFFFFFFFFFFFFFFFFFFFFFFFFFFF AND DUP2 MSTORE PUSH1 0x20 ADD SWAP1 DUP2 MSTORE PUSH1 0x20 ADD PUSH0 KECCAK256 SLOAD PUSH2 0x514 SWAP2 SWAP1 PUSH2 0x12B9 JUMP JUMPDEST SWAP1 POP DUP4 PUSH1 0x6 DUP3 DUP2 SLOAD DUP2 LT PUSH2 0x52B JUMPI PUSH2 0x52A PUSH2 0x12EC JUMP JUMPDEST JUMPDEST SWAP1 PUSH0 MSTORE PUSH1 0x20 PUSH0 KECCAK256 SWAP1 PUSH1 0x3 MUL ADD PUSH1 0x1 ADD DUP2 SWAP1 SSTORE POP DUP4 PUSH1 0x6 DUP3 DUP2 SLOAD DUP2 LT PUSH2 0x553 JUMPI PUSH2 0x552 PUSH2 0x12EC JUMP JUMPDEST JUMPDEST SWAP1 PUSH0 MSTORE PUSH1 0x20 PUSH0 KECCAK256 SWAP1 PUSH1 0x3 MUL ADD PUSH1 0x2 ADD PUSH0 DUP3 DUP3 SLOAD PUSH2 0x570 SWAP2 SWAP1 PUSH2 0x1286 JUMP JUMPDEST SWAP3 POP POP DUP2 SWAP1 SSTORE POP POP JUMPDEST DUP3 PUSH1 0x2 DUP2 SWAP1 SSTORE POP DUP2 PUSH1 0x1 PUSH0 PUSH2 0x100 EXP DUP2 SLOAD DUP2 PUSH20 0xFFFFFFFFFFFFFFFFFFFFFFFFFFFFFFFFFFFFFFFF MUL NOT AND SWAP1 DUP4 PUSH20 0xFFFFFFFFFFFFFFFFFFFFFFFFFFFFFFFFFFFFFFFF AND MUL OR SWAP1 SSTORE POP DUP2 PUSH20 0xFFFFFFFFFFFFFFFFFFFFFFFFFFFFFFFFFFFFFFFF AND PUSH32 0xDEFDC4699AE6600934634BEC71E3E4081368537FB24E45EA245B17B8C448C391 DUP5 PUSH1 0x40 MLOAD PUSH2 0x606 SWAP2 SWAP1 PUSH2 0x1319 JUMP JUMPDEST PUSH1 0x40 MLOAD DUP1 SWAP2 SUB SWAP1 LOG2 PUSH2 0x258 PUSH1 0x4 SLOAD PUSH2 0x61E SWAP2 SWAP1 PUSH2 0x12B9 JUMP JUMPDEST TIMESTAMP GT ISZERO PUSH2 0x640 JUMPI PUSH2 0x258 PUSH1 0x4 PUSH0 DUP3 DUP3 SLOAD PUSH2 0x638 SWAP2 SWAP1 PUSH2 0x1286 JUMP JUMPDEST SWAP3 POP POP DUP2 SWAP1 SSTORE POP JUMPDEST POP POP POP JUMP JUMPDEST PUSH1 0x60 PUSH1 0x6 DUP1 SLOAD DUP1 PUSH1 0x20 MUL PUSH1 0x20 ADD PUSH1 0x40 MLOAD SWAP1 DUP2 ADD PUSH1 0x40 MSTORE DUP1 SWAP3 SWAP2 SWAP1 DUP2 DUP2 MSTORE PUSH1 0x20 ADD PUSH0 SWAP1 JUMPDEST DUP3 DUP3 LT ISZERO PUSH2 0x700 JUMPI DUP4 DUP3 SWAP1 PUSH0 MSTORE PUSH1 0x20 PUSH0 KECCAK256 SWAP1 PUSH1 0x3 MUL ADD PUSH1 0x40 MLOAD DUP1 PUSH1 0x60 ADD PUSH1 0x40 MSTORE SWAP1 DUP2 PUSH0 DUP3 ADD PUSH0 SWAP1 SLOAD SWAP1 PUSH2 0x100 EXP SWAP1 DIV PUSH20 0xFFFFFFFFFFFFFFFFFFFFFFFFFFFFFFFFFFFFFFFF AND PUSH20 0xFFFFFFFFFFFFFFFFFFFFFFFFFFFFFFFFFFFFFFFF AND PUSH20 0xFFFFFFFFFFFFFFFFFFFFFFFFFFFFFFFFFFFFFFFF AND DUP2 MSTORE PUSH1 0x20 ADD PUSH1 0x1 DUP3 ADD SLOAD DUP2 MSTORE PUSH1 0x20 ADD PUSH1 0x2 DUP3 ADD SLOAD DUP2 MSTORE POP POP DUP2 MSTORE PUSH1 0x20 ADD SWAP1 PUSH1 0x1 ADD SWAP1 PUSH2 0x668 JUMP JUMPDEST POP POP POP POP SWAP1 POP SWAP1 JUMP JUMPDEST PUSH0 PUSH0 SWAP1 SLOAD SWAP1 PUSH2 0x100 EXP SWAP1 DIV PUSH20 0xFFFFFFFFFFFFFFFFFFFFFFFFFFFFFFFFFFFFFFFF AND PUSH20 0xFFFFFFFFFFFFFFFFFFFFFFFFFFFFFFFFFFFFFFFF AND CALLER PUSH20 0xFFFFFFFFFFFFFFFFFFFFFFFFFFFFFFFFFFFFFFFF AND EQ PUSH2 0x797 JUMPI PUSH1 0x40 MLOAD PUSH32 0x8C379A000000000000000000000000000000000000000000000000000000000 DUP2 MSTORE PUSH1 0x4 ADD PUSH2 0x78E SWAP1 PUSH2 0x137C JUMP JUMPDEST PUSH1 0x40 MLOAD DUP1 SWAP2 SUB SWAP1 REVERT JUMPDEST PUSH1 0x4 SLOAD TIMESTAMP LT ISZERO PUSH2 0x7DC JUMPI PUSH1 0x40 MLOAD PUSH32 0x8C379A000000000000000000000000000000000000000000000000000000000 DUP2 MSTORE PUSH1 0x4 ADD PUSH2 0x7D3 SWAP1 PUSH2 0x13E4 JUMP JUMPDEST PUSH1 0x40 MLOAD DUP1 SWAP2 SUB SWAP1 REVERT JUMPDEST PUSH0 PUSH1 0x6 DUP1 SLOAD SWAP1 POP SWAP1 POP PUSH0 PUSH0 PUSH0 PUSH0 PUSH0 SWAP1 POP JUMPDEST DUP5 DUP2 LT ISZERO PUSH2 0x9AE JUMPI PUSH0 PUSH1 0x6 DUP3 DUP2 SLOAD DUP2 LT PUSH2 0x80A JUMPI PUSH2 0x809 PUSH2 0x12EC JUMP JUMPDEST JUMPDEST SWAP1 PUSH0 MSTORE PUSH1 0x20 PUSH0 KECCAK256 SWAP1 PUSH1 0x3 MUL ADD PUSH1 0x2 ADD SLOAD SWAP1 POP PUSH1 0x1 PUSH0 SWAP1 SLOAD SWAP1 PUSH2 0x100 EXP SWAP1 DIV PUSH20 0xFFFFFFFFFFFFFFFFFFFFFFFFFFFFFFFFFFFFFFFF AND PUSH20 0xFFFFFFFFFFFFFFFFFFFFFFFFFFFFFFFFFFFFFFFF AND PUSH1 0x6 DUP4 DUP2 SLOAD DUP2 LT PUSH2 0x868 JUMPI PUSH2 0x867 PUSH2 0x12EC JUMP JUMPDEST JUMPDEST SWAP1 PUSH0 MSTORE PUSH1 0x20 PUSH0 KECCAK256 SWAP1 PUSH1 0x3 MUL ADD PUSH0 ADD PUSH0 SWAP1 SLOAD SWAP1 PUSH2 0x100 EXP SWAP1 DIV PUSH20 0xFFFFFFFFFFFFFFFFFFFFFFFFFFFFFFFFFFFFFFFF AND PUSH20 0xFFFFFFFFFFFFFFFFFFFFFFFFFFFFFFFFFFFFFFFF AND EQ ISZERO DUP1 ISZERO PUSH2 0x8B9 JUMPI POP PUSH0 DUP2 GT JUMPDEST ISZERO PUSH2 0x9A0 JUMPI DUP1 DUP6 PUSH2 0x8CA SWAP2 SWAP1 PUSH2 0x1286 JUMP JUMPDEST SWAP5 POP DUP3 DUP1 PUSH2 0x8D7 SWAP1 PUSH2 0x1402 JUMP JUMPDEST SWAP4 POP POP PUSH1 0x6 DUP3 DUP2 SLOAD DUP2 LT PUSH2 0x8EE JUMPI PUSH2 0x8ED PUSH2 0x12EC JUMP JUMPDEST JUMPDEST SWAP1 PUSH0 MSTORE PUSH1 0x20 PUSH0 KECCAK256 SWAP1 PUSH1 0x3 MUL ADD PUSH0 ADD PUSH0 SWAP1 SLOAD SWAP1 PUSH2 0x100 EXP SWAP1 DIV PUSH20 0xFFFFFFFFFFFFFFFFFFFFFFFFFFFFFFFFFFFFFFFF AND PUSH20 0xFFFFFFFFFFFFFFFFFFFFFFFFFFFFFFFFFFFFFFFF AND PUSH2 0x8FC PUSH1 0x64 PUSH1 0x62 DUP5 PUSH2 0x944 SWAP2 SWAP1 PUSH2 0x115A JUMP JUMPDEST PUSH2 0x94E SWAP2 SWAP1 PUSH2 0x11C8 JUMP JUMPDEST SWAP1 DUP2 ISZERO MUL SWAP1 PUSH1 0x40 MLOAD PUSH0 PUSH1 0x40 MLOAD DUP1 DUP4 SUB DUP2 DUP6 DUP9 DUP9 CALL SWAP4 POP POP POP POP ISZERO DUP1 ISZERO PUSH2 0x976 JUMPI RETURNDATASIZE PUSH0 PUSH0 RETURNDATACOPY RETURNDATASIZE PUSH0 REVERT JUMPDEST POP PUSH0 PUSH1 0x6 DUP4 DUP2 SLOAD DUP2 LT PUSH2 0x98C JUMPI PUSH2 0x98B PUSH2 0x12EC JUMP JUMPDEST JUMPDEST SWAP1 PUSH0 MSTORE PUSH1 0x20 PUSH0 KECCAK256 SWAP1 PUSH1 0x3 MUL ADD PUSH1 0x2 ADD DUP2 SWAP1 SSTORE POP JUMPDEST POP DUP1 DUP1 PUSH1 0x1 ADD SWAP2 POP POP PUSH2 0x7ED JUMP JUMPDEST POP PUSH1 0x64 PUSH1 0x62 DUP5 PUSH2 0x9BE SWAP2 SWAP1 PUSH2 0x115A JUMP JUMPDEST PUSH2 0x9C8 SWAP2 SWAP1 PUSH2 0x11C8 JUMP JUMPDEST DUP4 PUSH2 0x9D3 SWAP2 SWAP1 PUSH2 0x12B9 JUMP JUMPDEST SWAP2 POP PUSH32 0x5DFBFB672FFAB2921C60754DF242659E83C6EDA1BFE5401BD054B8170EDE1FF DUP4 DUP4 DUP4 PUSH1 0x40 MLOAD PUSH2 0xA08 SWAP4 SWAP3 SWAP2 SWAP1 PUSH2 0x1449 JUMP JUMPDEST PUSH1 0x40 MLOAD DUP1 SWAP2 SUB SWAP1 LOG1 POP POP POP POP JUMP JUMPDEST PUSH0 PUSH0 PUSH1 0x4 SLOAD TIMESTAMP LT ISZERO PUSH2 0xA5D JUMPI PUSH1 0x40 MLOAD PUSH32 0x8C379A000000000000000000000000000000000000000000000000000000000 DUP2 MSTORE PUSH1 0x4 ADD PUSH2 0xA54 SWAP1 PUSH2 0x13E4 JUMP JUMPDEST PUSH1 0x40 MLOAD DUP1 SWAP2 SUB SWAP1 REVERT JUMPDEST PUSH1 0x1 PUSH0 SWAP1 SLOAD SWAP1 PUSH2 0x100 EXP SWAP1 DIV PUSH20 0xFFFFFFFFFFFFFFFFFFFFFFFFFFFFFFFFFFFFFFFF AND PUSH1 0x2 SLOAD SWAP2 POP SWAP2 POP SWAP1 SWAP2 JUMP JUMPDEST PUSH1 0x4 SLOAD TIMESTAMP LT PUSH2 0xACE JUMPI PUSH1 0x40 MLOAD PUSH32 0x8C379A000000000000000000000000000000000000000000000000000000000 DUP2 MSTORE PUSH1 0x4 ADD PUSH2 0xAC5 SWAP1 PUSH2 0x110F JUMP JUMPDEST PUSH1 0x40 MLOAD DUP1 SWAP2 SUB SWAP1 REVERT JUMPDEST PUSH0 CALLER SWAP1 POP PUSH0 PUSH20 0xFFFFFFFFFFFFFFFFFFFFFFFFFFFFFFFFFFFFFFFF AND PUSH1 0x5 PUSH0 DUP4 PUSH20 0xFFFFFFFFFFFFFFFFFFFFFFFFFFFFFFFFFFFFFFFF AND PUSH20 0xFFFFFFFFFFFFFFFFFFFFFFFFFFFFFFFFFFFFFFFF AND DUP2 MSTORE PUSH1 0x20 ADD SWAP1 DUP2 MSTORE PUSH1 0x20 ADD PUSH0 KECCAK256 PUSH0 ADD PUSH0 SWAP1 SLOAD SWAP1 PUSH2 0x100 EXP SWAP1 DIV PUSH20 0xFFFFFFFFFFFFFFFFFFFFFFFFFFFFFFFFFFFFFFFF AND PUSH20 0xFFFFFFFFFFFFFFFFFFFFFFFFFFFFFFFFFFFFFFFF AND SUB PUSH2 0xB9E JUMPI PUSH1 0x40 MLOAD PUSH32 0x8C379A000000000000000000000000000000000000000000000000000000000 DUP2 MSTORE PUSH1 0x4 ADD PUSH2 0xB95 SWAP1 PUSH2 0x14EE JUMP JUMPDEST PUSH1 0x40 MLOAD DUP1 SWAP2 SUB SWAP1 REVERT JUMPDEST PUSH0 PUSH1 0x5 PUSH0 DUP4 PUSH20 0xFFFFFFFFFFFFFFFFFFFFFFFFFFFFFFFFFFFFFFFF AND PUSH20 0xFFFFFFFFFFFFFFFFFFFFFFFFFFFFFFFFFFFFFFFF AND DUP2 MSTORE PUSH1 0x20 ADD SWAP1 DUP2 MSTORE PUSH1 0x20 ADD PUSH0 KECCAK256 PUSH1 0x1 ADD SLOAD PUSH1 0x5 PUSH0 DUP5 PUSH20 0xFFFFFFFFFFFFFFFFFFFFFFFFFFFFFFFFFFFFFFFF AND PUSH20 0xFFFFFFFFFFFFFFFFFFFFFFFFFFFFFFFFFFFFFFFF AND DUP2 MSTORE PUSH1 0x20 ADD SWAP1 DUP2 MSTORE PUSH1 0x20 ADD PUSH0 KECCAK256 PUSH1 0x2 ADD SLOAD PUSH2 0xC2B SWAP2 SWAP1 PUSH2 0x12B9 JUMP JUMPDEST SWAP1 POP PUSH0 DUP2 GT PUSH2 0xC6F JUMPI PUSH1 0x40 MLOAD PUSH32 0x8C379A000000000000000000000000000000000000000000000000000000000 DUP2 MSTORE PUSH1 0x4 ADD PUSH2 0xC66 SWAP1 PUSH2 0x157C JUMP JUMPDEST PUSH1 0x40 MLOAD DUP1 SWAP2 SUB SWAP1 REVERT JUMPDEST PUSH0 DUP2 GT ISZERO PUSH2 0xD8F JUMPI DUP2 PUSH20 0xFFFFFFFFFFFFFFFFFFFFFFFFFFFFFFFFFFFFFFFF AND PUSH2 0x8FC DUP3 SWAP1 DUP2 ISZERO MUL SWAP1 PUSH1 0x40 MLOAD PUSH0 PUSH1 0x40 MLOAD DUP1 DUP4 SUB DUP2 DUP6 DUP9 DUP9 CALL SWAP4 POP POP POP POP ISZERO DUP1 ISZERO PUSH2 0xCBA JUMPI RETURNDATASIZE PUSH0 PUSH0 RETURNDATACOPY RETURNDATASIZE PUSH0 REVERT JUMPDEST POP PUSH1 0x5 PUSH0 DUP4 PUSH20 0xFFFFFFFFFFFFFFFFFFFFFFFFFFFFFFFFFFFFFFFF AND PUSH20 0xFFFFFFFFFFFFFFFFFFFFFFFFFFFFFFFFFFFFFFFF AND DUP2 MSTORE PUSH1 0x20 ADD SWAP1 DUP2 MSTORE PUSH1 0x20 ADD PUSH0 KECCAK256 PUSH1 0x1 ADD SLOAD PUSH1 0x5 PUSH0 DUP5 PUSH20 0xFFFFFFFFFFFFFFFFFFFFFFFFFFFFFFFFFFFFFFFF AND PUSH20 0xFFFFFFFFFFFFFFFFFFFFFFFFFFFFFFFFFFFFFFFF AND DUP2 MSTORE PUSH1 0x20 ADD SWAP1 DUP2 MSTORE PUSH1 0x20 ADD PUSH0 KECCAK256 PUSH1 0x2 ADD DUP2 SWAP1 SSTORE POP DUP2 PUSH20 0xFFFFFFFFFFFFFFFFFFFFFFFFFFFFFFFFFFFFFFFF AND PUSH32 0xD84FCBAC5440AEDDA6D2B5F149AA3182C87252EEF5BAB6F061CFE022A3E166EF DUP3 PUSH1 0x40 MLOAD PUSH2 0xD86 SWAP2 SWAP1 PUSH2 0x1319 JUMP JUMPDEST PUSH1 0x40 MLOAD DUP1 SWAP2 SUB SWAP1 LOG2 JUMPDEST POP POP JUMP JUMPDEST PUSH0 PUSH0 SWAP1 SLOAD SWAP1 PUSH2 0x100 EXP SWAP1 DIV PUSH20 0xFFFFFFFFFFFFFFFFFFFFFFFFFFFFFFFFFFFFFFFF AND PUSH20 0xFFFFFFFFFFFFFFFFFFFFFFFFFFFFFFFFFFFFFFFF AND CALLER PUSH20 0xFFFFFFFFFFFFFFFFFFFFFFFFFFFFFFFFFFFFFFFF AND EQ PUSH2 0xE21 JUMPI PUSH1 0x40 MLOAD PUSH32 0x8C379A000000000000000000000000000000000000000000000000000000000 DUP2 MSTORE PUSH1 0x4 ADD PUSH2 0xE18 SWAP1 PUSH2 0x137C JUMP JUMPDEST PUSH1 0x40 MLOAD DUP1 SWAP2 SUB SWAP1 REVERT JUMPDEST PUSH1 0x4 SLOAD TIMESTAMP LT ISZERO PUSH2 0xE66 JUMPI PUSH1 0x40 MLOAD PUSH32 0x8C379A000000000000000000000000000000000000000000000000000000000 DUP2 MSTORE PUSH1 0x4 ADD PUSH2 0xE5D SWAP1 PUSH2 0x13E4 JUMP JUMPDEST PUSH1 0x40 MLOAD DUP1 SWAP2 SUB SWAP1 REVERT JUMPDEST PUSH1 0x1 PUSH0 SWAP1 SLOAD SWAP1 PUSH2 0x100 EXP SWAP1 DIV PUSH20 0xFFFFFFFFFFFFFFFFFFFFFFFFFFFFFFFFFFFFFFFF AND PUSH20 0xFFFFFFFFFFFFFFFFFFFFFFFFFFFFFFFFFFFFFFFF AND PUSH32 0xDAEC4582D5D9595688C8C98545FDD1C696D41C6AEAEB636737E84ED2F5C00EDA PUSH1 0x2 SLOAD PUSH1 0x40 MLOAD PUSH2 0xECF SWAP2 SWAP1 PUSH2 0x1319 JUMP JUMPDEST PUSH1 0x40 MLOAD DUP1 SWAP2 SUB SWAP1 LOG2 JUMP JUMPDEST PUSH0 DUP2 SWAP1 POP SWAP2 SWAP1 POP JUMP JUMPDEST PUSH2 0xEEB DUP2 PUSH2 0xED9 JUMP JUMPDEST DUP3 MSTORE POP POP JUMP JUMPDEST PUSH0 PUSH1 0x40 DUP3 ADD SWAP1 POP PUSH2 0xF04 PUSH0 DUP4 ADD DUP6 PUSH2 0xEE2 JUMP JUMPDEST PUSH2 0xF11 PUSH1 0x20 DUP4 ADD DUP5 PUSH2 0xEE2 JUMP JUMPDEST SWAP4 SWAP3 POP POP POP JUMP JUMPDEST PUSH0 DUP2 MLOAD SWAP1 POP SWAP2 SWAP1 POP JUMP JUMPDEST PUSH0 DUP3 DUP3 MSTORE PUSH1 0x20 DUP3 ADD SWAP1 POP SWAP3 SWAP2 POP POP JUMP JUMPDEST PUSH0 DUP2 SWAP1 POP PUSH1 0x20 DUP3 ADD SWAP1 POP SWAP2 SWAP1 POP JUMP JUMPDEST PUSH0 PUSH20 0xFFFFFFFFFFFFFFFFFFFFFFFFFFFFFFFFFFFFFFFF DUP3 AND SWAP1 POP SWAP2 SWAP1 POP JUMP JUMPDEST PUSH0 PUSH2 0xF6A DUP3 PUSH2 0xF41 JUMP JUMPDEST SWAP1 POP SWAP2 SWAP1 POP JUMP JUMPDEST PUSH2 0xF7A DUP2 PUSH2 0xF60 JUMP JUMPDEST DUP3 MSTORE POP POP JUMP JUMPDEST PUSH2 0xF89 DUP2 PUSH2 0xED9 JUMP JUMPDEST DUP3 MSTORE POP POP JUMP JUMPDEST PUSH1 0x60 DUP3 ADD PUSH0 DUP3 ADD MLOAD PUSH2 0xFA3 PUSH0 DUP6 ADD DUP3 PUSH2 0xF71 JUMP JUMPDEST POP PUSH1 0x20 DUP3 ADD MLOAD PUSH2 0xFB6 PUSH1 0x20 DUP6 ADD DUP3 PUSH2 0xF80 JUMP JUMPDEST POP PUSH1 0x40 DUP3 ADD MLOAD PUSH2 0xFC9 PUSH1 0x40 DUP6 ADD DUP3 PUSH2 0xF80 JUMP JUMPDEST POP POP POP POP JUMP JUMPDEST PUSH0 PUSH2 0xFDA DUP4 DUP4 PUSH2 0xF8F JUMP JUMPDEST PUSH1 0x60 DUP4 ADD SWAP1 POP SWAP3 SWAP2 POP POP JUMP JUMPDEST PUSH0 PUSH1 0x20 DUP3 ADD SWAP1 POP SWAP2 SWAP1 POP JUMP JUMPDEST PUSH0 PUSH2 0xFFC DUP3 PUSH2 0xF18 JUMP JUMPDEST PUSH2 0x1006 DUP2 DUP6 PUSH2 0xF22 JUMP JUMPDEST SWAP4 POP PUSH2 0x1011 DUP4 PUSH2 0xF32 JUMP JUMPDEST DUP1 PUSH0 JUMPDEST DUP4 DUP2 LT ISZERO PUSH2 0x1041 JUMPI DUP2 MLOAD PUSH2 0x1028 DUP9 DUP3 PUSH2 0xFCF JUMP JUMPDEST SWAP8 POP PUSH2 0x1033 DUP4 PUSH2 0xFE6 JUMP JUMPDEST SWAP3 POP POP PUSH1 0x1 DUP2 ADD SWAP1 POP PUSH2 0x1014 JUMP JUMPDEST POP DUP6 SWAP4 POP POP POP POP SWAP3 SWAP2 POP POP JUMP JUMPDEST PUSH0 PUSH1 0x20 DUP3 ADD SWAP1 POP DUP2 DUP2 SUB PUSH0 DUP4 ADD MSTORE PUSH2 0x1066 DUP2 DUP5 PUSH2 0xFF2 JUMP JUMPDEST SWAP1 POP SWAP3 SWAP2 POP POP JUMP JUMPDEST PUSH0 PUSH2 0x1078 DUP3 PUSH2 0xF41 JUMP JUMPDEST SWAP1 POP SWAP2 SWAP1 POP JUMP JUMPDEST PUSH2 0x1088 DUP2 PUSH2 0x106E JUMP JUMPDEST DUP3 MSTORE POP POP JUMP JUMPDEST PUSH0 PUSH1 0x40 DUP3 ADD SWAP1 POP PUSH2 0x10A1 PUSH0 DUP4 ADD DUP6 PUSH2 0x107F JUMP JUMPDEST PUSH2 0x10AE PUSH1 0x20 DUP4 ADD DUP5 PUSH2 0xEE2 JUMP JUMPDEST SWAP4 SWAP3 POP POP POP JUMP JUMPDEST PUSH0 DUP3 DUP3 MSTORE PUSH1 0x20 DUP3 ADD SWAP1 POP SWAP3 SWAP2 POP POP JUMP JUMPDEST PUSH32 0x41756374696F6E2077617320656E646564000000000000000000000000000000 PUSH0 DUP3 ADD MSTORE POP JUMP JUMPDEST PUSH0 PUSH2 0x10F9 PUSH1 0x11 DUP4 PUSH2 0x10B5 JUMP JUMPDEST SWAP2 POP PUSH2 0x1104 DUP3 PUSH2 0x10C5 JUMP JUMPDEST PUSH1 0x20 DUP3 ADD SWAP1 POP SWAP2 SWAP1 POP JUMP JUMPDEST PUSH0 PUSH1 0x20 DUP3 ADD SWAP1 POP DUP2 DUP2 SUB PUSH0 DUP4 ADD MSTORE PUSH2 0x1126 DUP2 PUSH2 0x10ED JUMP JUMPDEST SWAP1 POP SWAP2 SWAP1 POP JUMP JUMPDEST PUSH32 0x4E487B7100000000000000000000000000000000000000000000000000000000 PUSH0 MSTORE PUSH1 0x11 PUSH1 0x4 MSTORE PUSH1 0x24 PUSH0 REVERT JUMPDEST PUSH0 PUSH2 0x1164 DUP3 PUSH2 0xED9 JUMP JUMPDEST SWAP2 POP PUSH2 0x116F DUP4 PUSH2 0xED9 JUMP JUMPDEST SWAP3 POP DUP3 DUP3 MUL PUSH2 0x117D DUP2 PUSH2 0xED9 JUMP JUMPDEST SWAP2 POP DUP3 DUP3 DIV DUP5 EQ DUP4 ISZERO OR PUSH2 0x1194 JUMPI PUSH2 0x1193 PUSH2 0x112D JUMP JUMPDEST JUMPDEST POP SWAP3 SWAP2 POP POP JUMP JUMPDEST PUSH32 0x4E487B7100000000000000000000000000000000000000000000000000000000 PUSH0 MSTORE PUSH1 0x12 PUSH1 0x4 MSTORE PUSH1 0x24 PUSH0 REVERT JUMPDEST PUSH0 PUSH2 0x11D2 DUP3 PUSH2 0xED9 JUMP JUMPDEST SWAP2 POP PUSH2 0x11DD DUP4 PUSH2 0xED9 JUMP JUMPDEST SWAP3 POP DUP3 PUSH2 0x11ED JUMPI PUSH2 0x11EC PUSH2 0x119B JUMP JUMPDEST JUMPDEST DUP3 DUP3 DIV SWAP1 POP SWAP3 SWAP2 POP POP JUMP JUMPDEST PUSH32 0x426964206D757374206265206174206C65617374203525206772656174657220 PUSH0 DUP3 ADD MSTORE PUSH32 0x7468616E2063757272656E742077696E6E657200000000000000000000000000 PUSH1 0x20 DUP3 ADD MSTORE POP JUMP JUMPDEST PUSH0 PUSH2 0x1252 PUSH1 0x33 DUP4 PUSH2 0x10B5 JUMP JUMPDEST SWAP2 POP PUSH2 0x125D DUP3 PUSH2 0x11F8 JUMP JUMPDEST PUSH1 0x40 DUP3 ADD SWAP1 POP SWAP2 SWAP1 POP JUMP JUMPDEST PUSH0 PUSH1 0x20 DUP3 ADD SWAP1 POP DUP2 DUP2 SUB PUSH0 DUP4 ADD MSTORE PUSH2 0x127F DUP2 PUSH2 0x1246 JUMP JUMPDEST SWAP1 POP SWAP2 SWAP1 POP JUMP JUMPDEST PUSH0 PUSH2 0x1290 DUP3 PUSH2 0xED9 JUMP JUMPDEST SWAP2 POP PUSH2 0x129B DUP4 PUSH2 0xED9 JUMP JUMPDEST SWAP3 POP DUP3 DUP3 ADD SWAP1 POP DUP1 DUP3 GT ISZERO PUSH2 0x12B3 JUMPI PUSH2 0x12B2 PUSH2 0x112D JUMP JUMPDEST JUMPDEST SWAP3 SWAP2 POP POP JUMP JUMPDEST PUSH0 PUSH2 0x12C3 DUP3 PUSH2 0xED9 JUMP JUMPDEST SWAP2 POP PUSH2 0x12CE DUP4 PUSH2 0xED9 JUMP JUMPDEST SWAP3 POP DUP3 DUP3 SUB SWAP1 POP DUP2 DUP2 GT ISZERO PUSH2 0x12E6 JUMPI PUSH2 0x12E5 PUSH2 0x112D JUMP JUMPDEST JUMPDEST SWAP3 SWAP2 POP POP JUMP JUMPDEST PUSH32 0x4E487B7100000000000000000000000000000000000000000000000000000000 PUSH0 MSTORE PUSH1 0x32 PUSH1 0x4 MSTORE PUSH1 0x24 PUSH0 REVERT JUMPDEST PUSH0 PUSH1 0x20 DUP3 ADD SWAP1 POP PUSH2 0x132C PUSH0 DUP4 ADD DUP5 PUSH2 0xEE2 JUMP JUMPDEST SWAP3 SWAP2 POP POP JUMP JUMPDEST PUSH32 0x4F6E6C7920636F6E7472616374206F776E657200000000000000000000000000 PUSH0 DUP3 ADD MSTORE POP JUMP JUMPDEST PUSH0 PUSH2 0x1366 PUSH1 0x13 DUP4 PUSH2 0x10B5 JUMP JUMPDEST SWAP2 POP PUSH2 0x1371 DUP3 PUSH2 0x1332 JUMP JUMPDEST PUSH1 0x20 DUP3 ADD SWAP1 POP SWAP2 SWAP1 POP JUMP JUMPDEST PUSH0 PUSH1 0x20 DUP3 ADD SWAP1 POP DUP2 DUP2 SUB PUSH0 DUP4 ADD MSTORE PUSH2 0x1393 DUP2 PUSH2 0x135A JUMP JUMPDEST SWAP1 POP SWAP2 SWAP1 POP JUMP JUMPDEST PUSH32 0x41756374696F6E206973206E6F7420656E646564000000000000000000000000 PUSH0 DUP3 ADD MSTORE POP JUMP JUMPDEST PUSH0 PUSH2 0x13CE PUSH1 0x14 DUP4 PUSH2 0x10B5 JUMP JUMPDEST SWAP2 POP PUSH2 0x13D9 DUP3 PUSH2 0x139A JUMP JUMPDEST PUSH1 0x20 DUP3 ADD SWAP1 POP SWAP2 SWAP1 POP JUMP JUMPDEST PUSH0 PUSH1 0x20 DUP3 ADD SWAP1 POP DUP2 DUP2 SUB PUSH0 DUP4 ADD MSTORE PUSH2 0x13FB DUP2 PUSH2 0x13C2 JUMP JUMPDEST SWAP1 POP SWAP2 SWAP1 POP JUMP JUMPDEST PUSH0 PUSH2 0x140C DUP3 PUSH2 0xED9 JUMP JUMPDEST SWAP2 POP PUSH32 0xFFFFFFFFFFFFFFFFFFFFFFFFFFFFFFFFFFFFFFFFFFFFFFFFFFFFFFFFFFFFFFFF DUP3 SUB PUSH2 0x143E JUMPI PUSH2 0x143D PUSH2 0x112D JUMP JUMPDEST JUMPDEST PUSH1 0x1 DUP3 ADD SWAP1 POP SWAP2 SWAP1 POP JUMP JUMPDEST PUSH0 PUSH1 0x60 DUP3 ADD SWAP1 POP PUSH2 0x145C PUSH0 DUP4 ADD DUP7 PUSH2 0xEE2 JUMP JUMPDEST PUSH2 0x1469 PUSH1 0x20 DUP4 ADD DUP6 PUSH2 0xEE2 JUMP JUMPDEST PUSH2 0x1476 PUSH1 0x40 DUP4 ADD DUP5 PUSH2 0xEE2 JUMP JUMPDEST SWAP5 SWAP4 POP POP POP POP JUMP JUMPDEST PUSH32 0x496E76616C6964206164647265737320746F20646F2061207061727469616C20 PUSH0 DUP3 ADD MSTORE PUSH32 0x726566756E640000000000000000000000000000000000000000000000000000 PUSH1 0x20 DUP3 ADD MSTORE POP JUMP JUMPDEST PUSH0 PUSH2 0x14D8 PUSH1 0x26 DUP4 PUSH2 0x10B5 JUMP JUMPDEST SWAP2 POP PUSH2 0x14E3 DUP3 PUSH2 0x147E JUMP JUMPDEST PUSH1 0x40 DUP3 ADD SWAP1 POP SWAP2 SWAP1 POP JUMP JUMPDEST PUSH0 PUSH1 0x20 DUP3 ADD SWAP1 POP DUP2 DUP2 SUB PUSH0 DUP4 ADD MSTORE PUSH2 0x1505 DUP2 PUSH2 0x14CC JUMP JUMPDEST SWAP1 POP SWAP2 SWAP1 POP JUMP JUMPDEST PUSH32 0x546F74616C20626964202D206C61737420616363657074656420626964206D75 PUSH0 DUP3 ADD MSTORE PUSH32 0x7374206265206772656174686572207468616E20300000000000000000000000 PUSH1 0x20 DUP3 ADD MSTORE POP JUMP JUMPDEST PUSH0 PUSH2 0x1566 PUSH1 0x35 DUP4 PUSH2 0x10B5 JUMP JUMPDEST SWAP2 POP PUSH2 0x1571 DUP3 PUSH2 0x150C JUMP JUMPDEST PUSH1 0x40 DUP3 ADD SWAP1 POP SWAP2 SWAP1 POP JUMP JUMPDEST PUSH0 PUSH1 0x20 DUP3 ADD SWAP1 POP DUP2 DUP2 SUB PUSH0 DUP4 ADD MSTORE PUSH2 0x1593 DUP2 PUSH2 0x155A JUMP JUMPDEST SWAP1 POP SWAP2 SWAP1 POP JUMP INVALID LOG2 PUSH5 0x6970667358 0x22 SLT KECCAK256 MUL PUSH21 0x596D6A1259650133EE6DA47DE30FD7C39E5DCA3ACA PUSH6 0x1D8AEC9B73A CODECOPY SWAP8 PUSH5 0x736F6C6343 STOP ADDMOD 0x1E STOP CALLER "
				},
				"gasEstimates": {
					"creation": {
						"codeDepositCost": "1116800",
						"executionCost": "infinite",
						"totalCost": "infinite"
					},
					"external": {
						"addBid()": "infinite",
						"endAuction()": "10309",
						"getAllBids()": "infinite",
						"getBalance()": "infinite",
						"getWinnerBid()": "6874",
						"partialWithdraw()": "infinite",
						"withdrawBids()": "infinite"
					}
				},
				"methodIdentifiers": {
					"addBid()": "782a5c82",
					"endAuction()": "fe67a54b",
					"getAllBids()": "8d0f6da3",
					"getBalance()": "12065fe0",
					"getWinnerBid()": "ceb98f6e",
					"partialWithdraw()": "f90ca117",
					"withdrawBids()": "c7505271"
				}
			},
			"storageLayout": {
				"storage": [
					{
						"astId": 3,
						"contract": "Auction.sol:Auction",
						"label": "owner",
						"offset": 0,
						"slot": "0",
						"type": "t_address"
					},
					{
						"astId": 5,
						"contract": "Auction.sol:Auction",
						"label": "winnerBidder",
						"offset": 0,
						"slot": "1",
						"type": "t_address_payable"
					},
					{
						"astId": 7,
						"contract": "Auction.sol:Auction",
						"label": "winnerBid",
						"offset": 0,
						"slot": "2",
						"type": "t_uint256"
					},
					{
						"astId": 9,
						"contract": "Auction.sol:Auction",
						"label": "startTime",
						"offset": 0,
						"slot": "3",
						"type": "t_uint256"
					},
					{
						"astId": 11,
						"contract": "Auction.sol:Auction",
						"label": "endTime",
						"offset": 0,
						"slot": "4",
						"type": "t_uint256"
					},
					{
						"astId": 26,
						"contract": "Auction.sol:Auction",
						"label": "bidders",
						"offset": 0,
						"slot": "5",
						"type": "t_mapping(t_address,t_struct(Bidder)21_storage)"
					},
					{
						"astId": 30,
						"contract": "Auction.sol:Auction",
						"label": "allBidders",
						"offset": 0,
						"slot": "6",
						"type": "t_array(t_struct(Bidder)21_storage)dyn_storage"
					},
					{
						"astId": 34,
						"contract": "Auction.sol:Auction",
						"label": "bidderIndex",
						"offset": 0,
						"slot": "7",
						"type": "t_mapping(t_address,t_uint256)"
					}
				],
				"types": {
					"t_address": {
						"encoding": "inplace",
						"label": "address",
						"numberOfBytes": "20"
					},
					"t_address_payable": {
						"encoding": "inplace",
						"label": "address payable",
						"numberOfBytes": "20"
					},
					"t_array(t_struct(Bidder)21_storage)dyn_storage": {
						"base": "t_struct(Bidder)21_storage",
						"encoding": "dynamic_array",
						"label": "struct Auction.Bidder[]",
						"numberOfBytes": "32"
					},
					"t_mapping(t_address,t_struct(Bidder)21_storage)": {
						"encoding": "mapping",
						"key": "t_address",
						"label": "mapping(address => struct Auction.Bidder)",
						"numberOfBytes": "32",
						"value": "t_struct(Bidder)21_storage"
					},
					"t_mapping(t_address,t_uint256)": {
						"encoding": "mapping",
						"key": "t_address",
						"label": "mapping(address => uint256)",
						"numberOfBytes": "32",
						"value": "t_uint256"
					},
					"t_struct(Bidder)21_storage": {
						"encoding": "inplace",
						"label": "struct Auction.Bidder",
						"members": [
							{
								"astId": 16,
								"contract": "Auction.sol:Auction",
								"label": "bidder",
								"offset": 0,
								"slot": "0",
								"type": "t_address_payable"
							},
							{
								"astId": 18,
								"contract": "Auction.sol:Auction",
								"label": "bid",
								"offset": 0,
								"slot": "1",
								"type": "t_uint256"
							},
							{
								"astId": 20,
								"contract": "Auction.sol:Auction",
								"label": "totalBid",
								"offset": 0,
								"slot": "2",
								"type": "t_uint256"
							}
						],
						"numberOfBytes": "96"
					},
					"t_uint256": {
						"encoding": "inplace",
						"label": "uint256",
						"numberOfBytes": "32"
					}
				}
			},
			"userdoc": {
				"kind": "user",
				"methods": {},
				"version": 1
			}
		}
	}
}